:020000040800F2
:10000000A0070020D5020008A12C0008992C0008A8
:100010009D2C00089D1500081D35000800000000FB
:10002000000000000000000000000000A12F0008F8
:10003000A115000800000000E52C0008A52F00080D
:10004000EF020008EF020008EF020008EF020008CC
:10005000EF020008EF020008EF020008EF020008BC
:10006000EF020008EF020008EF020008EF020008AC
:10007000EF020008EF020008EF020008EF0200089C
:10008000EF020008EF020008EF020008EF0200088C
:10009000EF020008EF020008EF020008EF0200087C
:1000A000EF020008EF020008EF020008EF0200086C
:1000B000EF020008EF020008EF020008EF0200085C
:1000C000EF020008EF020008EF020008EF0200084C
:1000D000EF020008EF020008EF020008EF0200083C
:1000E000EF020008EF020008EF020008EF0200082C
:1000F000EF020008EF020008EF020008EF0200081C
:10010000EF020008EF020008EF020008EF0200080B
:10011000EF020008EF020008EF020008EF020008FB
:10012000EF020008EF020008EF020008EF020008EB
:10013000EF020008EF020008EF020008EF020008DB
:10014000EF020008EF020008EF020008EF020008CB
:10015000EF020008EF020008EF020008EF020008BB
:10016000EF020008EF020008EF020008EF020008AB
:10017000EF020008EF020008EF0200080000000094
:10018000EF020008EF02000800F002F800F092F819
:100190000AA090E8000C82448344AAF10107DA45E2
:1001A00001D100F087F8AFF2090EBAE80F0013F0A2
:1001B000010F18BFFB1A43F0010318474C3F000022
:1001C0006C3F0000103A24BF78C878C1FAD85207B3
:1001D00024BF30C830C144BF04680C6070470000C1
:1001E0000023002400250026103A28BF78C1FBD840
:1001F000520728BF30C148BF0B6070476E2900F01E
:10020000FB81702900F04183662903F0CE866529C1
:1002100003F0CB86672903F0C886612903F0C786FF
:1002200003681B0A28BF41F08001692900F0A881FA
:10023000642900F0A581752900F0A2816F2900F0E2
:10024000CF82782900F00D83E92900F06982E42942
:1002500000F06682F52900F06382EF2900F0CC827D
:10026000F82900F00C830368DB0928BF41F0800106
:10027000632901F01680732901F01B80E32901F046
:100280002680F32901F02B80002070471FB503F072
:100290007FFE01F079F804000020002103F062FEE7
:1002A000401C60600020002103F046FEE0601FBD9E
:1002B00010B510BD01F03BF81146FFF7E7FF03F062
:1002C0002FF901F017F903B4FFF7F2FF03BC01F0B7
:1002D0005DF900000948804709480047FEE7FEE74E
:1002E000FEE7FEE7FEE7FEE7FEE7FEE7FEE7FEE7E6
:1002F00004480549054A064B70470000A92F00082D
:1003000089010008A0010020A0070020A003002010
:10031000A003002053EA020C00F069802DE9F04BA5
:100320004FF00006002B1FBFB3FA83F503FA05F464
:1003300024FA05F65E4012BF1643B2FA82F502FABD
:1003400005F4C5F120051EBF22FA05FC44EA0C04A1
:10035000203556EA044C4FEA144418BF641C4FF091
:1003600000084FF00009904271EB030C39D30029CB
:1003700019BFB1FA81F701FA07F6B0FA80F700FA6F
:1003800007F6C7F120071EBF20FA07FC46EA0C0655
:100390002037B6FBF4FCA7EB0507103F07F01F0B57
:1003A000CBF120062CFA06F60CFA0BFB44BFB34641
:1003B0000026202FA4BF5E464FF0000B5BEA060C20
:1003C00008BF4FF0010B19EB0B0948EB0608ABFB1C
:1003D000027C06FB02CC0BFB03CCC01B71EB0C01B7
:1003E000C1E70B46024641464846BDE8F08B13B5CF
:1003F000084318BF4FF0FF300146AFF30080BDE85F
:100400001C4070471CB50C46064B7B446946009067
:10041000204600F00AF904460020694600F018F969
:1004200020461CBD4302000010B5431C02E010F83A
:10043000011B71B18107FAD14FF0013202C88C1A49
:100440008C4314EAC211F9D0C01A0A0603D0C01EA8
:1004500010BDC01A10BD0A0401D0801E10BD0902D3
:10046000FCD0401E10BD4FF0000200B5134694466C
:100470009646203922BFA0E80C50A0E80C50B1F1FC
:100480002001BFF4F7AF090728BFA0E80C5048BF10
:100490000CC05DF804EB890028BF40F8042B08BFAE
:1004A000704748BF20F8022B11F0804F18BF00F8AA
:1004B000012B704770477047704770B504468569D7
:1004C0000068C10601D5302600E02026C00707D00D
:1004D00070BDD4E9012130469047206A401C20625B
:1004E0006D1EF6D570BD70B5044685690078C007ED
:1004F00007D170BDD4E9012120209047206A401C1B
:1005000020626D1EF6D570BD09684A0501D540B25E
:100510007047C905FCD500B2704709684A0501D586
:10052000C0B27047C905FCD580B2704770B50C46A3
:100530000546012A05D02878800600D5EA690023FF
:1005400002E0012305E05B1C934202D2E05C00283C
:10055000F9D1A869E618C01AA861286A1844286267
:100560002846FFF7AAFF04E0D5E9012114F8010BA2
:100570009047B442F8D32846FFF7B5FF70BD00009E
:100580002DE9F0410646002410687529314616A56C
:1005900010D0FFF7B9FF002802DA404213A507E0A8
:1005A00031688A0701D512A502E0490704D511A5D3
:1005B000012401E0FFF7B1FF00210A2206F1240720
:1005C00009E0B0FBF2FCB0FBF2F302FB1C003030A0
:1005D00078541846491C0028F3D123462A46304651
:1005E000BDE8F04100F068BA000000002D000000F6
:1005F0002B0000002000000011680268006A53050B
:1006000001D508700AE0D30501D5088006E013067D
:1006100003D5C217C1E9000200E00860012070475D
:1006200001694A1C02610878704700B58FB0CDE9B6
:1006300001310021059105497944CDE903101146A6
:10064000684600F02DF90FB000BD0000E5FFFFFF88
:100650000A6802F8010B0A60704700002DE9FF5F8D
:1006600015468A460446DFF8AC80F8440027D8E9EE
:1006700000103E46CDE9001010E03AF816106A4628
:1006800002A800F030FE411C07D02178890603D56E
:10069000E269391891420DD80744761C207880060B
:1006A00002D5E069B84205DDAE42E6DB3AF8160055
:1006B0000028E2D1A069C01BA0612046FFF7FDFE23
:1006C000D8E90010CDE90010002017E03AF8181022
:1006D0006A4602A800F007FEB0F1FF3F81460BD04A
:1006E00000250DF1080B05E0D4E901211BF80500F8
:1006F00090476D1C4D45F7D308F10100B04280468C
:10070000E4DB206A384420622046FFF7ECFE00F06C
:1007100003B80000463900003FBCBDE8C09F0000A0
:100720002DE9F0418046D21D22F007020025D2E9D2
:100730000002F52915A614D0011E72F1000106DA97
:100740000023D0EB030063EB020211A608E0D8F807
:1007500000108B0701D50FA602E0490701D50EA6B0
:1007600001251146002408F1240704E000F05FF998
:1007700030323A55641C50EA0102F7D12B4632461A
:1007800021464046BDE8F04100F096B90000000067
:100790002D0000002B0000002000000030B40021DC
:1007A00000F1240408E002F00705D208303542EADF
:1007B0004372DB086554491C52EA0305F3D104680F
:1007C000002310A2250708D504F020040C4304D010
:1007D000C46901230CA2641EC46130BC00F06CB972
:1007E00010B5044621461068FFF797FE02462046E2
:1007F000BDE810400023D1E7D21D22F00701D1E966
:100800000023CBE70000000030000000F0B40D46EC
:100810000188090502D5214C7C4402E01F4C7C4430
:100820000E34002100F1240608E002F00F0712093F
:10083000E75D42EA03721B097754491C52EA030739
:10084000F3D102780023120704D5702D06D009B128
:10085000022311342246F0BC00F02EB901231034DB
:10086000F8E770B504460D4621461068FFF755FEBF
:10087000024629462046BDE870400023C6E7D21D47
:1008800022F00703D3E90023C0E70368126843F0AE
:10089000200303600823C3610023B7E7A0370000EB
:1008A0002DE9F05F894604464FF0000ADFF874B185
:1008B000FB44C0F820A02046E1688847002874D097
:1008C000252806D0D4E901219047206A401C2062E7
:1008D000F1E700265F462046E16888472028054664
:1008E00007DB312D05D2781910F8200C08B106432A
:1008F000F1E7B00701D526F00406C4F81CA00027D4
:10090000C4F818A02A2D09D0284603F00DFB38B3EF
:1009100004EB8708303DC8F8185019E059F8041B5B
:10092000204604EB87029161E1688847012F054664
:1009300018D1E069002820DA26F020061DE0D8F85A
:10094000180000EB800005EB40003038C8F81800B4
:100950002046E1688847054603F0E6FA0028EED114
:10096000012F0AD02E2D08D12046E16888477F1C30
:100970000546022F46F02006C4DBA069002803DAF2
:10098000404246F00106A061F00701D026F01006B3
:100990006C2D0BD0682D09D04C2D39D06A2D35D057
:1009A000742D35D07A2D33D016E038E0E1682F462B
:1009B00020468847B842054609D16C2F26D04FF40F
:1009C0008060E168064320468847054604E06C2FB6
:1009D0001AD04FF4807006430DB3A5F141001928D9
:1009E00002D8203546F400664A462946204626604D
:1009F0004E46FFF703FC80B101280BD0F61D26F010
:100A0000070000F1080956E74020E4E78020D8E716
:100A10000020D6E706F104094DE7284652E7206A90
:100A200000F002B83037000030BCBDE8C09F30B5E0
:100A3000B0F10A0271F100034FEA900E4EEA817E96
:100A4000B0EB0E0061EB91014FEA101E4EEA017E01
:100A500010EB0E0041EB11114FEA102E4EEA016E21
:100A600010EB0E0041EB11214FEA104E4EEA014E01
:100A700010EB0E0041EB1141401841F100014FEA2B
:100A8000D00040EA41704FEAD1014FEA810444EAC4
:100A9000907410EB800544EB01046D1944EB0404E1
:100AA000521BA3414FF0000348BF0A3200D530BDAE
:100AB000401C41F1000130BD2DE9F0470D4699463B
:100AC0009246044600F124080168880604D5E069CE
:100AD00021F01001216000E00120A84201DD471B48
:100AE00000E00027A1697A1902EB0900081AA06149
:100AF0002078C00602D42046FFF7DFFC002608E07D
:100B0000D4E901211AF806009047206A401C761C9F
:100B100020624E45F4DB2078C0060AD52046FFF758
:100B2000CCFC06E0D4E9012130209047206A401C2B
:100B30002062381EA7F10107F4DC07E0D4E90121A7
:100B400018F805009047206A401C2062281EA5F175
:100B50000105F3DC2046FFF7C6FC2078000602D52D
:100B60000220BDE8F0870120FBE72DE9FF4F0C468E
:100B70001E464FF0FF378BB0D2E90001DDF86080F0
:100B80000A908A46C1F30A5505B93D460021084638
:100B90004FF00000BAF1000F00F4400005DA00EB5E
:100BA00080004FF4400101EA50004FEA9059B9F13A
:100BB000010F00DDB9460A9850EA4A000ED044F60B
:100BC0001050A5F2FF3545432F14B8F1000F1ED089
:100BD0007542291E1EDDC9F100021CE0B8F1010FAB
:100BE0004FF0000001D0302103E0F24305E0215432
:100BF000401CB042FBDB30460022002121540B99FF
:100C0000C1F80880C1E900200FB000F0BCB9BD1BDD
:100C10006D1CDEE74A4600DA694206A800F0F8FBE0
:100C200006AB93E8070003AB83E8070050460A9938
:100C300002F09AFD8DE80700A0F500501F380090E3
:100C40000398002D0ADD42F21F014A4608440023A2
:100C500003A90390684603F003F809E0A0F50050EB
:100C60004A461F38002303A90390684603F00DF895
:100C70008DE807000004000C03D04FF0FF3041085E
:100C800000E01046B8F1000F03D000220092154694
:100C90001EE0751E05D4FFF7CAFE303262556D1E88
:100CA000F9D5B3460122084302D000227F1C04E09C
:100CB0002078302801D100227F1E002A099784D095
:100CC0001DE0112D07DAFFF7B2FE303262556D1CC0
:100CD00050EA0102F5D1084302D00098C8B10EE0F5
:100CE0000021681E05E0235C625C63542254401EB0
:100CF000491C8142F7DBAB46A81B401E099000202F
:100D000004F80B000B98099AC0F80880C0E9002B82
:100D10007AE711264FF0000857E72DE9F04F884693
:100D20000446D21D22F0070191B0D1E90001CDE9BE
:100D30000A0103F0E1F802460B98C00F01D02D2004
:100D400007E02068810701D52B2002E0202101EA7D
:100D5000C000032A099001D0072A05DB034641465B
:100D6000204600F015FB0BE12078800601D5E069F4
:100D700000E00620B8F1650F814606D0B8F1660F95
:100D800018D0B8F1670F70D131E00020B9F1110F20
:100D9000009001DB112301E009F101030AAA01A976
:100DA0000CA8FFF7E2FEDDE90C70002609F1010551
:100DB000834647E001204B4600904FF000470AAAC7
:100DC00001A90CA8FFF7D1FEDDE90DB00C995D4635
:100DD000002610B909F101000D18B9EB050003D484
:100DE000C0F1FF3609F10105A5EB09002BE0B9F1CF
:100DF000010F01DA4FF001090020B9F1110F009045
:100E0000484601DD112300E003460AAA01A90CA807
:100E1000FFF7ABFEDDE90C704D46002683462078D7
:100E200000070AD4AB4500DA5D4601A8012D04DDB8
:100E3000411911F8011C302907D04F4502DA17F18A
:100E4000040F04DA012082460FE06D1EEEE7002F4A
:100E500002DCED1B3E4403E0781CA84200DD7D1C53
:100E6000B81B00F1010A4FF000472078000703D4B7
:100E7000AA4501DB4FF0FF3A0021B7F1004F0DF119
:100E800043088DF8431024D002202B23002F01DAD1
:100E90007F422D230A21021EA0F1010000DC5FB178
:100EA00097FBF1FC97FBF1F201FB1C7C17460CF160
:100EB000300C08F801CDEEE7A8F10100037021889D
:100EC000090501D5452100E06521A0F1010800F8E0
:100ED000011C09980FA9A1EB0807FF1D00B1012013
:100EE000411901EBEA70A1693844081A401EA0615B
:100EF0002078C00602D42046FFF7DFFA099828B10F
:100F0000D4E901219047206A401C20622078C00665
:100F100022D52046FFF7D1FA1EE0002E04DBB345B0
:100F200002DD01A8805D00E03020D4E90121904776
:100F3000206A401C2062761CAAF101005FEA000AC8
:100F40000AD100F021FAC0680168405CD4E90121AF
:100F50009047206A401C2062281EA5F10105DCDCB8
:100F600007E0D4E9012118F8010B9047206A401CE2
:100F70002062381EA7F10107F3DC2046FFF7B3FA21
:100F8000032011B041E630BCBDE8C08F2DE9F04F21
:100F900004460D46D21D22F0070089B0D0E9009723
:100FA0004846394602F0A8FF0246F80F01D02D232B
:100FB00007E02068810701D52B2302E0202101EA08
:100FC000C0038DF820300BB1012000E00020032A7F
:100FD000824601D0072A04DB2946204600F0D8F9D2
:100FE0003FE12078800601D40D2500E0E569C7F3D4
:100FF0000A560D2D49DA00214FEA175B08464FF0DB
:101000000000002F00F4400007DA00EB80004FF4EE
:10101000400100EBD07001EA60008115012901DD7B
:101020004FF0FF3100224FEA850CBCF1180F06D3B8
:101030001346ACF118004FF08052C24003E04FF469
:10104000801323FA0CF30CF10C0CBCF1200F04D329
:10105000ACF1200C09FA0CF001E007FA0CF00029C1
:101060004FF0004801DD18B90FE00ED140450CD318
:1010700019EB02095F4121B9404502D19F4329EA9A
:101080000209BBEB175F00D0761C2088000502D553
:101090007B48784402E07A487844193808AA30231B
:1010A00002F80A30037C0AF10101002E0AF1020A5B
:1010B00053546A4602DC4FF0300101E04FF0310139
:1010C0004FF001088DF8001002D0A6F2FF3603E0C1
:1010D00059EA470100D06B4E002D02DC2178090748
:1010E00004D54FF002082E218DF80110C4460021CE
:1010F0000BE0C7F303433F01C35C491C6D1E02F8BC
:101100000830052908F1010801DA002DF1DC002181
:101110000CE000EB1973491C1B786D1E082902F8BE
:1011200008304FEA091908F1010801DA002DF0DC56
:1011300021688B0602D516E0A8F10108E04505DD1F
:1011400002EB080313F8013C302BF5D0B8F1000F87
:1011500009DD02EB080313F8013C2E2B03D109072C
:1011600001D4A8F10108002D05DD3E2102F8081088
:101170006D1E08F10108407C002E02F8080008F1FD
:10118000010804DA2D20764202F8080002E02B2044
:1011900002F808000A214FF47A70864208F101082B
:1011A0000BDB96FBF0F3303302F8083096FBF0F3DC
:1011B00008F1010800FB136601E0642E0CDB6420DB
:1011C00096FBF0F3303302F8083096FBF0F308F1A9
:1011D000010800FB136601E00A2E06DB96FBF1F026
:1011E000303002F8080008F1010896FBF1F001FB2D
:1011F0001060303002F80800A16908F1010808EB1E
:10120000050202EB0A00081AA0612078C00602D489
:101210002046FFF752F9216A08AE01EB0A0020626E
:1012200004E0D4E9012116F8010B9047BAF1010A54
:10123000F7D22078C00602D52046FFF73EF96E4669
:1012400009E016F8010B3E280FD0D4E901219047A0
:10125000206A401C2062B8F10108F2D22046FFF754
:1012600042F909B0032000F00FB8206A2844206238
:1012700003E0D4E90121302090476D1EEBD3F8E75D
:10128000722F000002FCFFFF30BCBDE8C08F10B51C
:10129000436913B1AFF3008001E0FFF747F9012084
:1012A00010BD127800F124010A7000224A70012258
:1012B000EDE711684FF0FF32E9E710B5436913B16C
:1012C000AFF3008001E0FFF7C9F9012010BD1288DB
:1012D00000F1240182840022C2840122EDE711681A
:1012E0004FF0FF32E9E72DE9F04116460C4605467E
:1012F00000F042F8036893F80101012807D0FF2CA1
:1013000012D8185D80B101202C70BDE8F081D3F8AF
:1013100007013246214603F20713C7182846BC4688
:10132000BDE8F041002360474FF0FF30EDE7754620
:1013300000F0EAF8AE4605006946534620F0070083
:10134000854618B020B5FEF7D3FFBDE820404FF02A
:1013500000064FF000074FF000084FF0000BAC46BE
:10136000ACE8C009ACE8C009ACE8C009ACE8C00909
:1013700021F007018D46704710B500F005F8001DFB
:1013800010BD00BFE12B0000004870473000002076
:101390002DE9F0411F46044603260168072A01F49F
:1013A000006004DB08B116A505E016A503E008B14E
:1013B00015A500E015A521F010002060A069C01E51
:1013C000A0610FB1401EA0612046FFF776F84FB133
:1013D000D4E9012138469047206A401C2062C01C95
:1013E000206206E0206AFAE7D4E9012115F8010B32
:1013F0009047761EF8D22046FFF775F8BDE8F081D9
:101400004E414E006E616E00494E4600696E6600A8
:101410002DE9F047814616468AB0354878440DC814
:101420008DE80D0032487844801C03AC0DC884E878
:101430000D0041F69B300844372190FBF1F290FB00
:10144000F1F5A5F1800501FB12041B3C02D56442B5
:10145000012000E00020DFF898A080460027FA4431
:10146000AAF1BE0A0EE0E0070AD03246684607EB52
:10147000470101230AEB810102F007FC8DE8070018
:1014800064107F1C002CEED1194F7F44AE3F19E051
:10149000E80715D007EB04100DF1180A90E80E00CC
:1014A0008AE80E00C068F04201D1981908903246CF
:1014B000012306A903A802F0E8FB03AB83E80700B9
:1014C0006D10641C002DE3D14FF0010332466946D4
:1014D000B8F1000F03A802D002F0C2FB01E002F055
:1014E000D4FBC9E90001C9F808200AB0BDE8F087BB
:1014F000782C000010B50446AFF300802046BDE80C
:101500001040FEF7E0BE00000048704710000020C9
:1015100030B44FF0013C50F8042B51F8043BCCFAA6
:1015200052F4D51A20D1FCB950F8042B51F8043BE1
:10153000CCFA52F4D51A17D1B4B950F8042B51F89B
:10154000043BCCFA52F4D51A0ED16CB950F8042BE6
:1015500051F8043BCCFA52F4D51A05D1002CDAD05C
:1015600030BC4FF00000704729BAB1FA81F111F098
:101570001801D1F120008440F2D1CA40CB4012F0D2
:10158000FF0213F0FF0330BCD01A70470149182046
:10159000ABBEFEE72600020070470000FEE7000039
:1015A00070470000EFF3108072B600BFFEE7000046
:1015B000B0B50023C7F6FF73194205D04FF0010CF8
:1015C0004FF0010E07E000BF11F47F4F26D04FF01F
:1015D000010E4FF0000C01234FEAF204032C06D851
:1015E000DFE804F01202080EBCF1000F0CD001205D
:1015F000B0BD00BFBEF1000F1CBF0120B0BD03E0B5
:10160000002B1CBF0120B0BD00684161816821F042
:101610001801114381600020B0BD00BF0B0607D444
:101620004B06CBD04FF0000C4FF0000E0023D3E759
:1016300001234FF0000C4FF0000ECDE710B5A8B11C
:101640000446407F20B900202077204600F032F881
:1016500002206077207958B1D4E902122046FFF7C2
:10166000A7FF00281CBF012010BD0BE0012010BD0A
:10167000206841F6B751C0F2C1414161816821F053
:10168000180181606079002814BF20694FF0FF3095
:101690002168D4E905230861886820F060001043C0
:1016A0008860886820F08000184388600120607797
:1016B000002010BD81B0006843F20001C4F20201B5
:1016C000884201D001B0704741F24800C4F20200E4
:1016D000016841F480510160006800F4805000907E
:1016E000009801B0704700002DE9F04F86B041F638
:1016F0000002C4F600020C6807239042049008BF61
:101700000623002C009300F0F18004984FF0000AAB
:1017100000F138424FEAB2230098012700264FF02B
:101720000008062B38BF1846009003910DE000BF5B
:101730000C6808F1010834FA07F006F1020607F117
:1017400001070AF1040A00F0D1807D1E012000FA91
:1017500005F314EA0309EBD0D1F804C00CF0030B35
:10176000ABF10104022C1FD2DDF810E04FEA480073
:10177000DEF808200290032000FA06F4C868A243AD
:10178000B0401043CEF80800DEF80420E0439A434E
:10179000019273468E46CCF300120199029CAA4036
:1017A000114359601BE000BFBBF1030F10D1049936
:1017B0004FF0030BCC6A24EA0303CCF3C004AC4023
:1017C0002343CB620BFA06F3D8430B4634462BE097
:1017D000032000FA06F3D843049B8E463446D968AA
:1017E000DEF808200140A2401143BBF1020FD9608E
:1017F0001AD16FF0030101EA550103EB010B0AF066
:101800001C030F227146DBF820C002FA03FE0A69AE
:101810002CEA0E0C9A4042EA0C02049BCBF82020E2
:10182000D1F804C00CF0030B19681CF4403F01EA26
:1018300000010BFA04F040EA0100186003993FF43C
:1018400077AF41F26002C4F20202106840F2004E2B
:1018500040F0010010601068C4F2010E00F00100B9
:101860000590059825F003004FF6084C7044CFF61C
:10187000FF7C50F80C400AF00C020F23934024EA3E
:101880000303009C04FA02F21A4340F80C20DEF82D
:1018900008004C6840EA090240F20C4CE30258BFD1
:1018A00020EA0902CEF80820C4F2010CDCF800009E
:1018B000A30240EA090258BF20EA0902CCF800203E
:1018C000DEF80400A30340EA090258BF20EA090237
:1018D000CEF80420DEF80000E30340EA090258BF16
:1018E00020EA0902CEF8002022E700BF06B000F08F
:1018F00000B830BCBDE8C08F0069084018BF0120A7
:10190000704700001823002A08BF2823C1507047E1
:1019100040F29C10C2F200000068704740F20000E4
:1019200040F29C11C2F20000C2F2000100780A6885
:10193000104408607047000080B542F20000C4F215
:101940000200016841F480710160032000F078F822
:10195000002000F009F800281CBF012080BD00F025
:1019600029F8002080BD000070B540F20006C2F2E8
:1019700000063178E1B1044640F20800C2F20000EE
:101980004FF47A720068B2FBF1F1B0FBF1F001F0B4
:101990002DF80F2C4FF0010508D838B94FF0FF3063
:1019A00021460022002500F01FF87460284670BD13
:1019B000012070BD82B041F25800C4F2020081687B
:1019C00041F001018160816801F0010101910199FB
:1019D000016841F080510160006800F08050009083
:1019E000009802B07047000010B54EF60C5CCEF2C5
:1019F000000CDCF80030C3F3022E8EF00704042C38
:101A000028BF0424BEF103034FF0FF3E0EFA04F496
:101A100038BF0023A14399400EFA03F39A431143C0
:101A200000F00F02043A624409010C3200F16043F5
:101A3000B0F1FF3FC8BF03F56442117010BD000054
:101A40004EF60C51CEF200010A684FF6FF031A4021
:101A500060F30A2242F0806040F0FD700860704739
:101A600047F20001C4F200010A68B0F5007F02F4F9
:101A7000C06031D1B0F5007F2CD00868012262F33C
:101A80004A20086040F20800C2F2000000683222DA
:101A900050434DF68362C4F21B32A0FB0202900C4D
:101AA0004A69520511D5421C0FD04A6952050CD51E
:101AB00058B14A69520508D5012806D04A6952052D
:101AC00003D50228A0F10400EAD14869400544BFCB
:101AD0000320704700207047B0F5806FFAD0086887
:101AE000022262F34A2008600020704747F200009B
:101AF000C4F20000006800F4C06070472DE9F047B0
:101B000082B00446407841F288070007C4F2020719
:101B100030D5606E4FEAB05103290BD8DFE801F0F1
:101B200002101C25201D002101F0DEF8064670B9C8
:101B30001AE000BF01266078C0060BD51EE000BF8A
:101B400004F12000002101F087F9064660B16078B9
:101B5000C00613D4B2464EE057F87C1C41F48031E5
:101B600047F87C1C01E000BF606E396821F4400139
:101B70000843386000266078C006EBD5A06E4FEAB7
:101B8000306003280AD8B246DFE800F002102216BF
:101B9000201D002101F0A8F80DE000BF4FF0010A60
:101BA0004FF00108A07880070DD528E004F120004F
:101BB000002101F051F98246BAF1000FD04612D04F
:101BC000A07880071BD4C2462168C80768D088E087
:101BD00057F87C0CB24640F4803047F87C0CBAF1E0
:101BE000000FD046ECD13868A16E20F04070084359
:101BF0004FF0000A3860B046A0788007E3D557F868
:101C0000300C10F080590BD157F8300C40F0805058
:101C100047F8300C57F8300C00F0805001900198D4
:101C200047F20005C4F20005286840F4807028607F
:101C3000FFF76EFE064600BF2868C00508D4FFF710
:101C400067FE801B0228F7D94FF0030A22E000BF8D
:101C5000BAF1000F1ED1B86810F4407012D0D4F859
:101C6000841088420BD0B868B96820F4407041F401
:101C70008031B960B96821F48031B960B860C007BB
:101C800040F01C81B868D4F8841020F440700843F8
:101C9000C246B860B9F1000F1AD02168C80720D138
:101CA000880726D448072CD4080732D4C80638D46D
:101CB00088063ED4880544D448054AD4480650D402
:101CC000080656D4C8055CD4880462D473E000BF0B
:101CD00057F8300C20F0805047F8300C2168C807C6
:101CE000DED03868A26B20F003001043386088070C
:101CF000D8D53868E26B20F00C00104338604807F4
:101D0000D2D53868226C20F03000104338600807C4
:101D1000CCD53868626C20F0C00010433860C8062B
:101D2000C6D53868A26C20F440701043386088062D
:101D3000C0D53868E26C20F44060104338608805F4
:101D4000BAD53868E26D20F4402010433860480569
:101D5000B4D53868226E20F440101043386048062D
:101D6000AED53868226D20F4405010433860080624
:101D7000A8D53868626D20F4404010433860C8052B
:101D8000A2D53868A26D20F4403010433860880432
:101D900011D53A68E06E22F040620243B0F1806FE4
:101DA0003A601DD0B0F1006F05D157F87C0C40F4BB
:101DB000801047F87C0C080326D53A68206F22F083
:101DC00040620243B0F1806F3A6015D0B0F1006F0D
:101DD0001AD157F87C0C40F4801047F87C0C13E0C3
:101DE000201D012100F080FF2168002818BF8246D5
:101DF0000803E2D408E000BF201D012100F074FFB9
:101E00002168002818BF8246480311D53A68606FE0
:101E100022F040620243B0F1806F3A601CD0B0F112
:101E2000006F05D157F87C0C40F4801047F87C0C0B
:101E3000480425D53968A06F21F040510143B0F125
:101E4000005F396014D0B0F1805F19D1201D0221EC
:101E500000F04AFF11E000BF201D012100F044FF07
:101E60002168002818BF82464804E3D408E000BF78
:101E700004F12000022100F0EFFF002818BF824685
:101E80002068010406D4C0030CD4504602B0BDE85B
:101E9000F08700BF3968E26F21F08041114339605B
:101EA000C003F2D53868D4F8801020F00040084311
:101EB0003860504602B0BDE8F08700BFFFF728FD4C
:101EC000064641F288354FF0030A00BFB868800724
:101ED0003FF5D8AEFFF71CFD801BA842F6D9D9E626
:101EE0002DE9F04381B000286BD042F20008C4F223
:101EF00002080446D8F800000D4600F007008842AA
:101F00000CD2D8F8000020F007002843C8F80000E1
:101F1000D8F8000000F00700A84252D1206841F232
:101F2000080910F00201C4F202090DD0A268D9F824
:101F3000003003F0F0039A4206D9D9F8003023F0BC
:101F4000F0031A43C9F80020C2072DD169B1A16876
:101F5000D9F8002002F0F002914206D2D9F8002010
:101F600022F0F0021143C9F80010D8F8001001F077
:101F70000701A9420CD9D8F8001021F00701294324
:101F8000C8F80010D8F8001001F00701A94218D1D4
:101F900041071BD4000723D4D9F80000D9F8041056
:101FA00010F00C002CD131E0606800285ED00228CF
:101FB00000F07E80032840F0818059F8081C8901D8
:101FC00058D4012001B0BDE8F08300BFD9F800105B
:101FD000E26821F4E0611143C9F800100007DBD585
:101FE000D9F80000216920F4605040EAC100C9F826
:101FF0000000D9F80000D9F8041010F00C0005D04A
:102000000C2829D101F00301012925D159F8081C18
:10201000090703D4D9F88C10090A02E059F8081C02
:10202000090944F2C80201F00F01C0F6000252F89B
:10203000211000280A4618BF00220C2871D1D9F8B7
:10204000040000F00300022846D0032804BF41F238
:102050000021C0F27A0143E0042857D008285BD160
:1020600041F20022C0F27A025BE000BF59F8081C7E
:102070008907A6D5D9F8001021F003010843C9F853
:102080000000FFF745FC064641F28837D9F800000A
:10209000616800F00C00B0EB810F15D0FFF738FC41
:1020A000801BB842F2D9032001B0BDE8F08300BF25
:1020B00059F8081C89037FF584AFDBE759F8081C41
:1020C00049057FF57EAFD5E7206800F002010029C1
:1020D0007FF43DAF49E700BF42F20041C0F2F40196
:1020E000D9F80400D9F80420C0F30210C2F3062284
:1020F0005143D9F804200130B1FBF0F0C2F3416143
:10210000022202EB4101B0FBF1F20AE042F200428E
:10211000C0F2F40205E000BF002200210C283FF4C9
:102120008EAFD9F8000044F2B001C0F30310C0F63E
:102130000001085C00F01F0022FA00F140F20400E8
:10214000C2F2000040F208020068C2F20002116010
:1021500001B0BDE8F043FFF707BC000040F2080003
:1021600041F20801C2F20000C4F2020100680968ED
:1021700044F2C002C1F30221C0F60002515C01F03A
:102180001F01C8407047000040F2080041F20801FA
:10219000C2F20000C4F202010068096844F2C00201
:1021A000C1F3C221C0F60002515C01F01F01C8401A
:1021B0007047000041F20C01C4F2020151F8040C16
:1021C00010F00C02086805D00C2A29D100F0030099
:1021D000012825D151F80C0C000703D4D1F8880050
:1021E000000A02E051F80C0C000944F2C80300F0A8
:1021F0000F00C0F6000353F82030002A184618BF1D
:1022000000200C2A18BF7047086800F0030002285D
:1022100010D0032804BF41F20023C0F27A030DE07E
:10222000042A1FD0082A23D141F20020C0F27A00EC
:10223000704700BF42F20043C0F2F40308680A6826
:10224000C0F30210C2F30622096801305A43B2FB00
:10225000F0F0C1F34161022202EB4101B0FBF1F069
:10226000704700BF42F20040C0F2F400704700BF68
:1022700000200023C5E700002DE9F04383B00028CB
:1022800000F0068341F200060446C4F20206B0687C
:10229000F168227800F00C09D00601F003081DD483
:1022A0002078C00700F08180B9F1080F76D0B9F12D
:1022B0000C0F08BFB8F1030F70D06068B0F5803F15
:1022C00007D0B0F5A02F40F01982306840F480208C
:1022D0003060306840F4803030601AE2B9F1000FAD
:1022E0001ED0B9F10C0F08BFB8F1010F18D0A169C9
:1022F0003068002900F0AE8140F001003060FFF747
:1023000007FB05463068800700F1B681FFF700FB48
:10231000401B02284FF00300F4D903B0BDE8F0835E
:102320003068800703D5A069002800F0B182256AD3
:102330003068000700F11E81D6F89400000900F013
:10234000F000854200F21C813068B9F1000F40F0C6
:1023500008003060306820F0F00040EA050030608E
:102360007068E16920F47F4040EA0120706040F02D
:102370007D82B06DC00000F11982B06D40F08050D8
:10238000B065B06D00F0805002900298FFF7AEFB90
:10239000B16D21F08051B1650AE200BF3068800361
:1023A00003D56068002800F07382207880072DD55F
:1023B000B9F1040F1CD0B9F10C0F08BFB8F1020F2E
:1023C00016D0E1683068002900F0B28140F48070D6
:1023D0003060FFF79DFA0546306840050FD4FFF7DF
:1023E00097FA401B02284FF00300F5D995E700BF8C
:1023F0003068400503D5E068002800F04982706825
:10240000216920F0F85040EA0160706020780007F0
:102410005ED42078400771D4A06A002800F0E282E0
:10242000022840F0DF80F068E16A00F003028A428F
:1024300040F0F080226B6FF00F0300F0700103EBAF
:102440000212914240F0E680616B00F4FE42B2EB72
:10245000012F40F0DF80A16B00F40032073918BF74
:1024600001218A4240F0D680E26B0023CFF6E07370
:1024700003EB025200F4C0016FF31402914240F0EA
:10248000C980216C4FF07E4202EB016100F0C06018
:1024900001F07E41884240F0BD803068800100F14B
:1024A000A182306840F080703060F06840F0807049
:1024B000F060FFF72DFA04463068800100F1928247
:1024C000FFF726FA001B02284FF00300F4D924E797
:1024D0006169D6F8940000296ED040F00100C6F87A
:1024E0009400FFF715FA0546D6F89400800790D4BB
:1024F000FFF70EFA401B0228F6D9FBE0B06D10F092
:10250000805808D1B06D40F08050B065B06D00F0DB
:1025100080500090009847F20007C4F20007386826
:10252000C00513D4386840F480703860FFF7F0F9C4
:10253000054600BF3868C00508D4FFF7E9F9401B1D
:1025400002284FF00300F5D9E7E600BFA068012894
:1025500008D0052840F0B080D6F8900040F0040084
:10256000C6F89000D6F8900040F00100C6F8900040
:10257000B1E000BF306800F0F00085427FF6E4AEC5
:10258000B06DC00000F18A80B06D40F08050B06541
:10259000B06D00F0805001900198FFF7A7FAB16D7F
:1025A00021F08051B165B0F5007F00F07D80802D75
:1025B00040F2D0800320D8E020F00100C6F894005B
:1025C000FFF7A6F9054600BFD6F8940080077FF50F
:1025D00020AFFFF79DF9401B02284FF00300F3D90D
:1025E0009BE600BFB9F10C0F00F05281306820F07B
:1025F00080703060FFF78CF9044600BF30688001BE
:1026000040F1E480FFF784F9001B02284FF003003B
:10261000F4D982E6B9F10C0F00F03A81306840013C
:102620005CBF30685FEAC00000F13281306820F0A2
:1026300080703060FFF76CF905463068800140F12A
:102640008F81FFF765F9401B02284FF00300F4D992
:1026500063E600BF20F001003060FFF759F905463E
:10266000306880077FF51CAEFFF752F9401B022847
:102670004FF00300F4D950E6306840F008003060B5
:102680003068D4E9072120F0F0000843306070681A
:1026900020F47F4040EA0220706001E6FFF726FA4E
:1026A000B0F5007F7FF483AF812D5DD30120A02D95
:1026B00088BF022059E000BFD6F89010002821F012
:1026C0000101C6F89010D6F8901021F00401C6F868
:1026D000901000F08780FFF71BF9054641F288371C
:1026E000D6F89000800700F18F80FFF711F9401BAA
:1026F000B842F5D9032003B0BDE8F0833168002863
:1027000021F480313160316821F48021316000F0A2
:102710008580FFF7FDF80546306880033FF545AE3C
:10272000FFF7F6F8401B64284FF00300F4D9F4E5F6
:1027300020F480703060FFF7EBF805463068400504
:102740007FF564AEFFF7E4F8401B02284FF003006A
:10275000F4D9E2E5A5F17000B0FA80F04009802DCF
:1027600008BF022001E000BF002042F20001C4F2D5
:1027700002010A6822F0070202440A60096801F0B7
:102780000701814240F08480306840F008003060EA
:102790003068D4E9072120F0F00008433060706809
:1027A00020F47F4040EA022070605FE0FFF79EF96E
:1027B000B0F5007F06D1812D40D30120A02D88BF28
:1027C000022045E0802D3BD9032041E0F0684FF620
:1027D000FC71CFF6EE610840F060002003B0BDE868
:1027E000F08300BFFFF794F8054641F28837D6F82A
:1027F0009000800708D5FFF78BF8401BB8424FF0D8
:102800000300F4D989E500BFB8F1000F7FF404AEEE
:10281000B06D20F08050B065FEE500BFFFF778F89E
:102820000546306880037FF5C0ADFFF771F8401BA7
:1028300064284FF00300F4D96FE500BF002007E0E3
:10284000A5F17000B0FA80F04009802D08BF022089
:1028500042F20001C4F202010A6822F007020244B7
:102860000A60096801F00701814211D1B068F1687E
:1028700010F00C0005D00C282AD101F00301012929
:1028800026D13168090707D4D6F89410090A05E063
:10289000012003B0BDE8F0833168090944F2C802A1
:1028A00001F00F01C0F6000252F8211000280A467C
:1028B00018BF00220C2837D1F06800F0030002286E
:1028C00010D0032804BF41F20021C0F27A010DE0CC
:1028D00004281FD0082823D141F20022C0F27A0236
:1028E00022E000BF42F20041C0F2F401F068F26859
:1028F000C0F30210C2F306225143F2680130B1FB6B
:10290000F0F0C2F34161022202EB4101B0FBF1F2AF
:102910000AE000BF42F20042C0F2F40204E000BF4D
:10292000002200210C28C7D0B06844F2B001C0F3E7
:102930000310C0F60001085C00F01F0022FA00F14D
:1029400040F20400C2F2000040F208020068C2F245
:1029500000021160FFF708F800287FF4DEAC9FE466
:10296000F06848F28C01CFF69D1104F12C0700EAC3
:10297000010C8ECFD4E90F546FF00F0040F2000E1F
:1029800000EB0210CFF6E07E41EA0C010EEB05559C
:102990004FF07E4208436FF3140502EB046240EAF5
:1029A000032002F07E420EF5F014284304EA473774
:1029B00010433843F060306840F080703060F06859
:1029C00040F08070F060FEF7A3FF0446306880019D
:1029D00008D4FEF79DFF001B02284FF00300F5D935
:1029E0009BE400BF002003B0BDE8F083411E00203F
:1029F000B0EB116F1CBF012070474EF21002CEF2F7
:102A0000000251604EF62351CEF20001F0230B700C
:102A10000721906011607047B0B582B0A0B1044644
:102A2000806F28B9002084F87400204600F056F822
:102A30002420A0672068016821F001010160204680
:102A400000F030FB012803D1012002B0B0BD00BF6F
:102A5000606A10B1204600F0B1FA2068416821F4A4
:102A600090414160816821F02A018160016841F054
:102A7000010101600020C4F88000FEF749FF2168D1
:102A800005460A6812070CD56FF07E4C20464FF4BD
:102A9000001100222B46CDF800C000F037FC78B9B9
:102AA0002168086840070FD56FF07E4C20464FF430
:102AB000800100222B46CDF800C000F027FC18B1A1
:102AC000032002B0B0BD00BF2020A067E067002057
:102AD000206684F8740002B0B0BD000010B5A8B044
:102AE000044600202790CDE92500CDE9230001A868
:102AF0008821FDF7B8FC206844F60001C4F200010B
:102B0000884229D044F20041C4F20001884254D1E5
:102B10000220019001A8FEF7F1FF002818BFFEF780
:102B200041FD41F24C00C4F20200C16841F40031A1
:102B3000C160C16801F4003100910099016841F061
:102B400001010160006800F00100009000980C2075
:102B500023904FF0904025E00420019001A8FEF75B
:102B6000CDFF002818BFFEF71DFD41F24C00C4F256
:102B70000200C16841F48021C160C16801F4802174
:102B800000910099016841F004010160006800F0C3
:102B90000400009000984FF44060239040F600003D
:102BA000C4F60000022124910021259103212691E1
:102BB0000721279123A9FEF797FD28B010BD00003B
:102BC0002DE9F04381B00446806F20280BD10E46DA
:102BD00000294FF001005CD01746002A59D094F824
:102BE0007400012804D1022001B0BDE8F08300BFC9
:102BF000012084F874004FF0000921201D46C4F81C
:102C00008090A067FEF784FEA4F85070A4F852707C
:102C1000A1680746B1F5805F08D1206900281CBF74
:102C200030464E46B046064602E000BF4FF0000870
:102C300084F8749009E000BF16F8010B216808853C
:102C4000B4F852000138A4F85200B4F8520088B128
:102C50002046802100223B46009500F057FB88B9B2
:102C6000002EE9D138F8020B21686FF35F20088548
:102C70000026E5E72046402100223B46009500F073
:102C800045FB18B1032001B0BDE8F0832020A06708
:102C9000002001B0BDE8F083FEE70000FEE7000081
:102CA000FEE7000083B010B59BB084461DA802ACBF
:102CB0000EC01DAA204661460192FDF7A3FB2046E7
:102CC000FDF7B2FB82B240F29400C2F2000021464E
:102CD0004FF0FF33FFF774FF1BB0BDE8104003B0A7
:102CE0007047000070470000F0B581B041F2000766
:102CF000C4F20207FA680D469107044614D0F8683A
:102D0000216800F0030088424FF0010040F0A180EC
:102D1000002900F09E80F8686168C0F3021001305D
:102D2000884232D134E000BF206803280CD002284A
:102D300016D0012829D13968012211F0020182EA56
:102D4000510116D120E000BF3968890310D43968D9
:102D5000012211F4802182EA91410AD114E000BFDE
:102D60003968012211F4806182EA912101D10BE0DE
:102D70000021FA68636822F073026FF00F0606EB19
:102D8000031310431843F86011B1012001B0F0BDE6
:102D9000386820F080603860FEF7BAFD064600BF54
:102DA0003868000106D5FEF7B3FD801B0228F7D96D
:102DB00046E000BF012D0FD005BB386948F2FF0186
:102DC000CFF6FD710840D4E902120023CFF6FE735E
:102DD00003EA423220E000BF48F2FF013869CFF633
:102DE000FF112269002301F1B461CFF6E0730840BE
:102DF000A16803EB02526FF314020DE0386948F248
:102E0000FF016269CFF6FF114FF07E430840A168D1
:102E100003EB026202F07E4240EA01201043386177
:102E2000386840F080603860FEF772FD054600BFEC
:102E30003868000108D4FEF76BFD401B0228F7D963
:102E4000032001B0F0BD00BFA069396908433861B3
:102E5000002001B0F0BD0000F0B581B041F20007E4
:102E6000C4F20207FA680D469107044614D0F868C8
:102E7000216800F0030088424FF0010040F08D808F
:102E8000002900F08A80F8686168C0F30210013000
:102E9000884219D136E000BF2068032818D00228E4
:102EA0000AD0012810D13968012211F0020182EA0A
:102EB000510108D019E000BF3968012211F4806186
:102EC00082EA912111D1E9B1012001B0F0BD00BF2A
:102ED0003968890308D43968012211F4802182EA13
:102EE0009141F0D001E000BF0021FA68636822F050
:102EF00073026FF00F0606EB031310431843F860DC
:102F00000029E1D1386820F080503860FEF700FDDC
:102F1000064600BF3868800006D5FEF7F9FC801B26
:102F20000228F7D930E000BF78696DB148F2FF019F
:102F30002269CFF6FF114FF07E430840A16803EBF2
:102F4000026202F07E420BE048F2FF01CFF6FD7113
:102F50000840D4E902120023CFF6FE7303EA42329E
:102F600040EA012010437861386840F080503860B2
:102F7000FEF7CEFC054600BF3868800008D4FEF797
:102F8000C7FC401B0228F7D9032001B0F0BD00BFE9
:102F90006069796908437861002001B0F0BD0000E4
:102FA00070470000FEF7BABC4EF68850CEF2000023
:102FB000016841F4700101607047000080B5416A0A
:102FC000CA070DD18A0716D44A071FD40A0728D486
:102FD000CA0631D48A063AD44A0658D542E000BF20
:102FE0000268D0F828C0536823F4003343EA0C0386
:102FF00053608A07E8D50268D0F82CC0536823F4E0
:10300000803343EA0C0353604A07DFD50268D0F8E7
:1030100030C0536823F4802343EA0C0353600A074B
:10302000D6D50268D0F834C0536823F4004343EA8D
:103030000C035360CA06CDD50268D0F838C0936837
:1030400023F4805343EA0C0393608A06C4D50268D4
:10305000D0F83CC0936823F4005343EA0C03936018
:103060004A0614D50268D0F840C05368BCF5801FEA
:1030700023F4801343EA0C03536008D1D2F804C050
:10308000D0F844E02CF4C00343EA0E035360090671
:1030900058BF80BD0168806C4A6822F4002210434A
:1030A000486080BDB0B505462A69D5E902130068BD
:1030B0000A436969D5F81CE01143026846F6F31427
:1030C000CEF6FF7441EA0E012240114301604168CF
:1030D00048F2000C21F4405119434160AA69C4F23E
:1030E000000C60451CBF296A0A438168102321F443
:1030F00030611143816044F6FF71C4F200018842DF
:1031000018DC44F20041C4F20001884228D044F6A1
:103110000001C4F2000188422AD044F60041C4F202
:103120000001884242D141F28801C4F202010968DB
:103130008B0933E045F20001C4F2000188421FD040
:10314000604525D043F60001C4F2010188422DD12B
:1031500041F28801C4F202010B6868A222E000BFBC
:1031600041F28801C4F2020109688B0816E000BF31
:1031700041F28801C4F2020109680B090EE000BFA8
:1031800041F28801C4F2020109680B0A06E000BF9F
:1031900041F28801C4F2020109688B0A44F2F80284
:1031A000C0F6000203F0030152F82130604542F2FC
:1031B0000040C0F2F40015D0BEF5004F22D1082B1C
:1031C0004FF0010100F29580DFE803F006546093B0
:1031D000589393935E0000BFFEF7C0FF002855D1BF
:1031E0004FE000BF082B4FF0010100F28280DFE8C2
:1031F00003F0058023801B8080802100FEF7AEFF56
:10320000D0B914E0082B4FF0010100F27280DFE822
:1032100003F005535F70577070705D00FEF79EFFFE
:10322000002855D14FE000BFFEF7C4FF20B90021B0
:103230005FE000BF4FF400406A6802EB4201884241
:103240004FF0010155D31303984252D8010E0002EA
:1032500010EB520041F100010023FDF75BF84FF63F
:103260000052A0F54071C0F20F0291423BD3012100
:103270003FE000BFFEF788FF40B902E0FEF79AFF8B
:1032800020B9002135E000BF4FF4004069684A08CA
:1032900002EB4000B0FBF1F04FF6EF72A0F110012D
:1032A000914207D84FF6F0710140C0F34200084444
:1032B00019E000BF01211CE0FEF766FF40B902E003
:1032C000FEF778FF20B9002113E000BF4FF4004063
:1032D00069684FF6EF7200EB5100B0FBF1F0A0F11E
:1032E0001001914204D82968C860002101E000BFA4
:1032F0000121002208466A66AA66B0BD01000000EE
:103300000400000002000000080000002DE9F04168
:10331000044600681546C2690E461140891BB1FA81
:1033200081F14909A94240F0A080DDF81880B8F188
:10333000000F29D018F1010140F08080C1693140AF
:10334000891BB1FA81F14909A94240F08E80C16917
:103350003140891BB1FA81F14909A94240F08580C9
:10336000C1693140891BB1FA81F14909A9427CD177
:10337000C1693140891BB1FA81F14909A942DDD007
:103380000020BDE8F08100BFFEF7C2FA206850E8D7
:10339000000F216820F4D07041E80002BAB3206821
:1033A00050E8000F216820F4D07041E8000272B3A9
:1033B000206850E8000F216820F4D07041E8000236
:1033C0002AB3206850E8000F216820F4D07041E84B
:1033D0000002002ADAD11AE0206850E8020F2168C2
:1033E00020F0010041E80202DAB1206850E8020F43
:1033F000216820F0010041E8020292B1206850E803
:10340000020F216820F0010041E802024AB1206861
:1034100050E8020F216820F0010041E80202002A72
:10342000DAD12020A06704F17C0020210160002077
:1034300084F874000320BDE8F08100BF1F4600BF80
:10344000FEF766FAC01B4045A0D82068016849070E
:1034500044BFC1695FEA01510AD4C0693040801B92
:10346000B0FA80F04009A842EAD00020BDE8F0811F
:103470004FF40061016200BF50E8000F216820F4A2
:10348000D07041E80002C2B3206850E8000F216804
:1034900020F4D07041E800027AB3206850E8000FB1
:1034A000216820F4D07041E8000232B3206850E86F
:1034B000000F216820F4D07041E80002EAB12068D2
:1034C000DAE700BF206850E8020F216820F0010011
:1034D00041E80202DAB1206850E8020F216820F0CA
:1034E000010041E8020292B1206850E8020F216811
:1034F00020F0010041E802024AB1206850E8020FC2
:10350000216820F0010041E80202002ADAD12020DF
:10351000A067E06704F1800087E70000FEE7000095
:103520002DE9F04196B0FEF707FA05A804302421F2
:10353000FCF799FF4FF40070FEF792FA20B1EFF319
:10354000108072B6FEE700BF4FF480710891102121
:103550000991012111910A21022012910721059060
:10356000CDE90F00CDE91310159005A8FEF784FEF4
:1035700020B1EFF3108072B6FEE700BF0F2000907D
:1035800003200190002668460421CDE902660496D6
:10359000FEF7A6FC20B1EFF3108072B6FEE700BF85
:1035A00041F24C00CDE90866C4F20200016840F621
:1035B000000841F004010160016844F2004701F095
:1035C0000401009100990168002241F0800101602E
:1035D0000168C4F6000801F08001009100990168BB
:1035E000C4F2000741F0010101600168202401F0EC
:1035F000010100910099016841F002010160006839
:10360000202100F00200009000984FF09040FEF75B
:1036100079F94FF4005005904FF4041005ADCDE951
:10362000060640462946FEF75FF8059401244FF050
:1036300090402946CDE906460896FEF755F840F237
:103640009400C2F200004FF4E1310C22C0E9007195
:10365000C0E90266C0E90462C0E90666C0E908661E
:10366000FFF7DAF920B1EFF3108072B6FEE700BF82
:1036700040F2700043F20001C2F20000C4F2020105
:10368000002501608580C0E905550462FDF7D6FF7D
:1036900020B1EFF3108072B6FEE700BF40F21810C1
:1036A00007F58061C2F200000C234FF4E13280E89C
:1036B0002600C0E90355C0E90535C0E90755456254
:1036C000FFF7AAF920B1EFF3108072B6FEE700BF52
:1036D00040464FF40051FEF70FF914A105A200284F
:1036E00008BF11460846FFF7DDFA002016B0BDE816
:1036F000F08100BF424C5F44454255475F4D534700
:103700003A20427574746F6E20697320507265732D
:10371000736564202E2E676F696E6720746F204278
:103720004C204D6F64650D0A00000000424C5F4460
:10373000454255475F4D53473A20427574746F6E4A
:10374000206973206E6F74205072657373656420F6
:103750002E2E676F696E6720746F207573657220F7
:103760006170700D0A0000005FEA400C08BF91F024
:10377000000F4FEA8C234FEAC12243EA51514FEA2E
:103780001C5018BF00F5F0404FEA300018BF41F060
:1037900000415FEA6C5C00F02980BCF1FF3F08BF8C
:1037A00040F080407047130C06BF12044FF0100C1D
:1037B0004FF0000C130E04BF12020CF1080C130F93
:1037C00004BF12010CF1040C930F04BF92000CF122
:1037D000020CD30F04BF52000CF1010C11464FF044
:1037E0000002A0F11F00A0EB0C00704711F0004F89
:1037F00008BF704731F000413FF4D5AF0B0C06BF56
:1038000009044FF0100C4FF0000C0B0E04BF09021E
:103810000CF1080C0B0F04BF09010CF1040C8B0F09
:1038200004BF89000CF1020CCB0F04BF49000CF15E
:10383000010CCCF1200322FA03F341EA030102FA5E
:103840000CF2A0EB0C0000F10100704723F07F4761
:1038500020F07F4C80EA030000F00040ACEB07034F
:1038600003F57C5303F1FF032DE9804909B44FEAC6
:10387000144324EA03484FEA154B25EA0B4E0FF296
:10388000042606EB13273E7803FB0667C7F50007FF
:1038900007FB06F64FEAD64606F102064FEA543712
:1038A00007FB066CCCF1005C4FEA1C472CEA074C86
:1038B0000CFB06F507FB06F404EB15464FEA9616DB
:1038C00049085FEA320234BF00204FF000404FEA5F
:1038D000D13706FB07FC4FEA1C4C0CFB0BF7D21B45
:1038E00003FB0CF761EB07010CFB0EF7B0EB074095
:1038F00072EB17420CFB08F734BFA2EB0742B2EBA6
:10390000074261EB17414FEA0C444FEA910706FB6F
:1039100007FC4FEA1C4C0CFB0BF7B0EBC74072EBFB
:10392000573203FB0CF734BFA2EBC742B2EBC742DE
:1039300061EB57310CFB0EF7B0EBC70072EB57721F
:103940000CFB08F734BFA2EBC702B2EBC70261EB76
:1039500057714FEA816141EA92114FEA826242EA6D
:1039600090124FEA806004EBCC04039F4FEAD137FA
:1039700006FB07FC4FEA1C4C0CFB0BF7D21B03FBAE
:103980000CF761EB07010CFB0EF7B0EB074072EB95
:1039900017420CFB08F734BFA2EB0742B2EB074219
:1039A00061EB17414FEA8C5504EB9C244FEA9107D9
:1039B00006FB07FC4FEA1C4C0CFB0BF7B0EBC740B7
:1039C00072EB573203FB0CF734BFA2EBC742B2EBEA
:1039D000C74261EB57310CFB0EF7B0EBC70072EB3F
:1039E00057720CFB08F734BFA2EBC702B2EBC70259
:1039F00061EB57714FEA816141EA92114FEA8262AD
:103A000042EA90124FEA806015EB4C2544F1000425
:103A10004FEAD13706FB07FC4FEA1C4C0CFB0BF7B7
:103A2000D21B03FB0CF761EB07010CFB0EF7B0EBAD
:103A3000074072EB17420CFB08F734BFA2EB0742BA
:103A4000B2EB074261EB17414FEA813141EA924103
:103A50004FEA823242EA90424FEA80304FEA0C76D7
:103A600015EB1C1544F1000448EA03434EEA0B48E9
:103A70004FF0000EB2EB080C71EB030724BF624657
:103A800039464EEB0E0E4FF0000B001852414941E3
:103A90004BEB0B0BB2EB080C71EB03077BF1000B4C
:103AA00024BF624639464EEB0E0E4FF0000B001855
:103AB000524149414BEB0B0BB2EB080C71EB030786
:103AC0007BF1000B24BF624639464EEB0E0E51EAE5
:103AD000020718BF46F0010616EB0E7655F10002FC
:103AE00054F1000103D5BDE88901BDE80088BDE8B7
:103AF0008901BDE80048B619524141EB0101A3F12B
:103B00000103704780807F7E7D7C7B7A7978777631
:103B100076757473727171706F6E6E6D6C6C6B6AAA
:103B20006A69686867666665646463636261616048
:103B3000605F5F5E5E5D5D5C5C5B5B5A5A595958C5
:103B4000585757565655555554545353525252512F
:103B5000515050504F4F4F4E4E4D4D4D4C4C4C4B85
:103B60004B4B4A4A4A4949494848484747474746CC
:103B70004646454545444444444343434342424208
:103B8000424141419C46002B30D477002BD04FEA74
:103B900037071CB503B44FF010004FF01001BAF115
:103BA000000F06D0BCF1000FDCBF40F0080040F071
:103BB00008014FF000000FBCBDE810400BF1010BF5
:103BC000BBF1010F08BF5FEA170722BF12F1010224
:103BD00011F101014FF0004143F1000300F00040FA
:103BE00043EA00007047F9D35708D0E746EA064693
:103BF0004FEA164613F1400F1FDD13F1200FDFBF10
:103C000016430A46002120335B42BED0C3F1200791
:103C100046EA06464FEA164602FA07F746EA07065C
:103C200022FA03F2C3F1200701FA07F742EA07027A
:103C300021FA03F14FF00003A7E746EA020646EA3D
:103C400006464FEA164646EA0106BCBF46EA064665
:103C5000360C4FF000034FF000024FF0000194E7E4
:103C60002DE9804C70B49A46934691E8380007C815
:103C700031EA400C48BF34EA430C03D5FFF7E6FDB8
:103C8000FFF780FFF0BCBDE8008C2DE9804C70B4DC
:103C90009A46934691E8380007C810F0804F08BF55
:103CA00013F0804F03D100F005F8FFF76BFFF0BC75
:103CB000BDE8008C20F07F4723F07F4C80EA0300B2
:103CC00000F0004007EB0C03A3F57C53A3F1FE03C7
:103CD00092F0000F00F0B38095F0000F00F07780B5
:103CE0002DE901494FEA114021EA00484FEA144604
:103CF00024EA064700FB06FC08FB06F607FB08F86B
:103D000018EB06484CEB164C00FB07F718EB07487E
:103D10004CEB17404FEA124B22EA0B4E4FEA154686
:103D200025EA06470BFB06FC0EFB06F607FB0EFE1C
:103D30001EEB064E4CEB164C0BFB07F71EEB074E2B
:103D40004CEB174B18EB0B0840F1000018EB0E0B77
:103D500058EB000840F100008F1A4FF000014FF0BF
:103D600000063CBFC943661B14BFB5EB040C002121
:103D70003CBFC943F61B4FEA174427EA04454FEA04
:103D80001C472CEA074C04FB076205FB07F70CFBFA
:103D900005F616EB074642EB174204FB0CFC16EB4C
:103DA0000C4642EB1C421BEB060658EB020241415B
:103DB0004EEA8E0E46EA9E0601D5BDE80189B61987
:103DC000524141EB0101A3F10103BDE801894FEA32
:103DD000144524EA05464FEA114721EA074C05FB42
:103DE00007F406FB07F70CFB06F111EB074144EB68
:103DF000174405FB0CFC11EB0C4144EB1C444FEA4F
:103E0000124722EA074C05FB07F206FB07F70CFBFB
:103E100006F616EB074642EB174205FB0CFC16EBC9
:103E20000C4642EB1C456A1854F1000148BF70472C
:103E3000B619524141EB0101A3F10103704795F01E
:103E4000000F37D04FEA114221EA02464FEA1447E9
:103E500024EA074C02FB07F106FB07F70CFB06F40C
:103E600014EB074441EB174102FB0CFC14EB0C4430
:103E700041EB1C414FEA154725EA074C02FB07F5C9
:103E800006FB07F70CFB06F616EB074645EB174556
:103E900002FB0CFC16EB0C4645EB1C42121951F1CF
:103EA000000148BF7047B619524141EB0101A3F12F
:103EB000010370474FEA144524EA05464FEA1147CB
:103EC00021EA074C05FB07F106FB07F70CFB06F29E
:103ED00012EB074241EB174105FB0CFC12EB0C42C5
:103EE00051EB1C414FF0000648BF7047921841EB60
:103EF0000101A3F10103704703B401984100009848
:103F000050EAC12018BF04204A0D18BF40F001003C
:103F100040F2FF72B2EB515F08BF40F0020001288F
:103F200008BF052002B0704730380A2801D20120AE
:103F3000704700207047000010B500290AD00878AB
:103F4000002807D005487844FDF7E2FA002801D0A0
:103F5000002010BD0248784410BD0000E2010000BE
:103F6000DA01000010B500290AD00878002807D02F
:103F700005487844FDF7CCFA002801D0002010BD98
:103F80000248784410BD0000D2010000CA010000C0
:103F9000F1EE100A4FF6FF71C0F2C03120EA0100C5
:103FA00040F04070E1EE100A7047FCF7B6BEFCF737
:103FB000EDBF00000000000000000000303132338F
:103FC000343536373839414243444546403058004D
:103FD000303132333435363738396162636465667F
:103FE00040307800040000080000000000000002DB
:103FF0000001000010303132333435363738396142
:104000006263646566787000303132333435363738
:1040100038394142434445465850000002400000B0
:10402000000000A00000000005400000000000C8E3
:10403000000000000C4000000000409C0000000058
:10404000194000000020BCBE000000003440000009
:10405000BFC91B8E00000004B5400000504BCFD0FC
:104060006607E2CF010000006C4100003E8251AAC9
:10407000DFEEA73401000000D9420000DCB5A0E269
:104080003A301F97FFFFFFFFB4450000FD25A0C891
:10409000E9A3C14FFFFFFFFFFF3F000000000080CA
:1040A00000000000FF3F0000000000800000000052
:1040B00000000000000000000102030406070809D8
:1040C0000000000001020304A0860100400D03006F
:1040D000801A060000350C0040420F0080841E004C
:1040E00000093D0000127A000024F40000366E0141
:1040F0000048E801006CDC02000000000400000041
:1041000002000000080000005842000800000020E3
:1041100010000000C40100086842000810000020E0
:1041200090070000E00100081C00000043000000B0
:10413000F8FFFFFF0C0000000E0000000F00000061
:104140002E0000001001000043000000F8FFFFFFF8
:10415000004040404040404040404141414141409A
:10416000404040404040404040404040404040404F
:1041700040050202020202020202020202020202DE
:1041800002202020202020202020200202020202E3
:10419000020290909090909010101010101010103B
:1041A0001010101010101010101010100202020247
:1041B000020288888888888808080808080808088B
:1041C0000808080808080808080808080202020287
:1041D000400000000000000000000000000000009F
:1041E00000000000000000000000000000000000CF
:1041F00000000000000000000000000000000000BF
:1042000000000000000000000000000000000000AE
:10421000000000000000000000000000000000009E
:10422000000000000000000000000000000000008E
:10423000000000000000000000000000000000007E
:10424000000000000000000000000000000000006E
:10425000000000000000000001000000100000004D
:0842600000093D000000000010
:040000050800018965
:00000001FF
