:020000040800F2
:10000000A0070020310200084D1D0008451D000812
:10001000491D000855060008D92500080000000009
:100020000000000000000000000000005D2000084B
:100030005906000800000000A11D0008612000080A
:100040004B0200084B0200084B0200084B0200085C
:100050004B0200084B0200084B0200084B0200084C
:100060004B0200084B0200084B0200084B0200083C
:100070004B0200084B0200084B0200084B0200082C
:100080004B0200084B0200084B0200084B0200081C
:100090004B0200084B0200084B0200084B0200080C
:1000A0004B0200084B0200084B0200084B020008FC
:1000B0004B0200084B0200084B0200084B020008EC
:1000C0004B0200084B0200084B0200084B020008DC
:1000D0004B0200084B0200084B0200084B020008CC
:1000E0004B0200084B0200084B0200084B020008BC
:1000F0004B0200084B0200084B0200084B020008AC
:100100004B0200084B0200084B0200084B0200089B
:100110004B0200084B0200084B0200084B0200088B
:100120004B0200084B0200084B0200084B0200087B
:100130004B0200084B0200084B0200084B0200086B
:100140004B0200084B0200084B0200084B0200085B
:100150004B0200084B0200084B0200084B0200084B
:100160004B0200084B0200084B0200084B0200083B
:100170004B0200084B0200084B0200080000000080
:100180004B0200084B02000800F002F800F041F8B2
:100190000AA090E8000C82448344AAF10107DA45E2
:1001A00001D100F036F8AFF2090EBAE80F0013F0F3
:1001B000010F18BFFB1A43F001031847582600002F
:1001C00078260000103A24BF78C878C1FAD85207C0
:1001D00024BF30C830C144BF04680C6070470000C1
:1001E0000023002400250026103A28BF78C1FBD840
:1001F000520728BF30C148BF0B607047642900F028
:10020000F380002070471FB502F0CBFA1FBD10B578
:1002100010BD00F0E4F91146FFF7F5FF02F0DEF93A
:1002200000F002FA03B4FFF7F2FF03BC00F00AFA91
:100230000948804709480047FEE7FEE7FEE7FEE77A
:10024000FEE7FEE7FEE7FEE7FEE7FEE704480549B6
:10025000054A064B70470000652000088901000828
:10026000A0010020A0070020A0030020A003002080
:1002700053EA020C00F069802DE9F04B4FF00006C4
:10028000002B1FBFB3FA83F503FA05F424FA05F631
:100290005E4012BF1643B2FA82F502FA05F4C5F1C8
:1002A00020051EBF22FA05FC44EA0C04203556EA5C
:1002B000044C4FEA144418BF641C4FF000084FF080
:1002C0000009904271EB030C39D3002919BFB1FA30
:1002D00081F701FA07F6B0FA80F700FA07F6C7F1DE
:1002E00020071EBF20FA07FC46EA0C062037B6FBA3
:1002F000F4FCA7EB0507103F07F01F0BCBF120061E
:100300002CFA06F60CFA0BFB44BFB3460026202F4E
:10031000A4BF5E464FF0000B5BEA060C08BF4FF02F
:10032000010B19EB0B0948EB0608ABFB027C06FB43
:1003300002CC0BFB03CCC01B71EB0C01C1E70B46DD
:10034000024641464846BDE8F08B13B5084318BF46
:100350004FF0FF300146AFF30080BDE81C4070470E
:100360001CB50C46054B7B4469460090204600F0C6
:100370001EF90020694600F02DF91CBD6B0200003B
:100380002DE9F0410E460446002020622046E16837
:10039000884730B3252805D0D4E901219047206A49
:1003A000401CF2E7E168204600278847050018D086
:1003B000A5F14100192802D820354FF400673246D4
:1003C000294620462760FFF719FF40B1012804D0D5
:1003D000F61D26F007060836D8E7361DD6E728466C
:1003E000DAE7206ABDE8F0812DE9F04106460024F5
:1003F00010687529314616A510D0AFF3008000288B
:1004000002DA404213A507E031688A0701D512A538
:1004100002E0490704D511A5012401E0AFF30080F3
:1004200000210A2206F1240709E0B0FBF2FCB0FB30
:10043000F2F302FB1C00303078541846491C0028A7
:10044000F3D123462A463046BDE8F04100F051B8CA
:10045000000000002D0000002B0000002000000024
:1004600010B5431C02E010F8011B71B18107FAD1ED
:100470004FF0013202C88C1A8C4314EAC211F9D031
:10048000C01A0A0603D0C01E10BDC01A10BD0A044F
:1004900001D0801E10BD0902FCD0401E10BD4FF0DF
:1004A000000200B5134694469646203922BFA0E8C4
:1004B0000C50A0E80C50B1F12001BFF4F7AF0907D0
:1004C00028BFA0E80C5048BF0CC05DF804EB8900C1
:1004D00028BF40F8042B08BF704748BF20F8022B04
:1004E00011F0804F18BF00F8012B7047704770471C
:1004F00070472DE9F0470D4699469246044600F1B3
:1005000024080168880604D5E06921F01001216003
:1005100000E00120A84201DD471B00E00027A1699F
:100520007A1902EB0900081AA0612078C00602D4EB
:100530002046AFF30080002608E0D4E901211AF834
:1005400006009047206A401C761C20624E45F4DB72
:100550002078C0060AD52046AFF3008006E0D4E933
:10056000012130209047206A401C2062381EA7F1EC
:100570000107F4DC07E0D4E9012118F805009047F1
:10058000206A401C2062281EA5F10105F3DC2046EC
:10059000AFF300802078000602D50220BDE8F08786
:1005A0000120FBE701694A1C02610878704700B529
:1005B0008FB0CDE901310021059105497944CDE99C
:1005C000031011466846FFF7DBFE0FB000BD0000C8
:1005D000E5FFFFFF0A6802F8010B0A6070477546E5
:1005E00000F02CF8AE4605006946534620F007009F
:1005F000854618B020B5FFF729FEBDE820404FF032
:1006000000064FF000074FF000084FF0000BAC461B
:10061000ACE8C009ACE8C009ACE8C009ACE8C00966
:1006200021F007018D46704710B50446AFF30080F6
:100630002046BDE81040FFF7F5BD000000487047B8
:100640001000002001491820ABBEFEE72600020082
:1006500070470000FEE7000070470000EFF31080D5
:1006600072B600BFFEE70000B0B50023C7F6FF7307
:10067000194205D04FF0010C4FF0010E07E000BF0A
:1006800011F47F4F26D04FF0010E4FF0000C0123E4
:100690004FEAF204032C06D8DFE804F01202080E39
:1006A000BCF1000F0CD00120B0BD00BFBEF1000FA7
:1006B0001CBF0120B0BD03E0002B1CBF0120B0BD5A
:1006C00000684161816821F01801114381600020B8
:1006D000B0BD00BF0B0607D44B06CBD04FF0000CCB
:1006E0004FF0000E0023D3E701234FF0000C4FF032
:1006F000000ECDE710B5A8B10446407F20B9002018
:100700002077204600F032F802206077207958B137
:10071000D4E902122046FFF7A7FF00281CBF0120E2
:1007200010BD0BE0012010BD206841F6B751C0F2AA
:10073000C1414161816821F0180181606079002820
:1007400014BF20694FF0FF302168D4E90523086108
:10075000886820F0600010438860886820F080007E
:100760001843886001206077002010BD81B00068C8
:1007700043F20001C4F20201884201D001B0704787
:1007800041F24800C4F20200016841F48051016066
:10079000006800F480500090009801B0704700009D
:1007A0002DE9F04F86B041F60002C4F600020C6855
:1007B00007239042049008BF0623002C009300F00A
:1007C000F18004984FF0000A00F138424FEAB2235A
:1007D0000098012700264FF00008062B38BF184666
:1007E000009003910DE000BF0C6808F1010834FA95
:1007F00007F006F1020607F101070AF1040A00F00A
:10080000D1807D1E012000FA05F314EA0309EBD024
:10081000D1F804C00CF0030BABF10104022C1FD281
:10082000DDF810E04FEA4800DEF8082002900320CF
:1008300000FA06F4C868A243B0401043CEF808009E
:10084000DEF80420E0439A43019273468E46CCF3CF
:1008500000120199029CAA40114359601BE000BF9D
:10086000BBF1030F10D104994FF0030BCC6A24EABB
:100870000303CCF3C004AC402343CB620BFA06F372
:10088000D8430B4634462BE0032000FA06F3D84346
:10089000049B8E463446D968DEF808200140A24009
:1008A0001143BBF1020FD9601AD16FF0030101EAC5
:1008B000550103EB010B0AF01C030F227146DBF814
:1008C00020C002FA03FE0A692CEA0E0C9A4042EAA2
:1008D0000C02049BCBF82020D1F804C00CF0030BD1
:1008E00019681CF4403F01EA00010BFA04F040EAE9
:1008F0000100186003993FF477AF41F26002C4F23F
:100900000202106840F2004E40F0010010601068D2
:10091000C4F2010E00F001000590059825F00300D7
:100920004FF6084C7044CFF6FF7C50F80C400AF0AC
:100930000C020F23934024EA0303009C04FA02F202
:100940001A4340F80C20DEF808004C6840EA09021F
:1009500040F20C4CE30258BF20EA0902CEF808200E
:10096000C4F2010CDCF80000A30240EA090258BFFF
:1009700020EA0902CCF80020DEF80400A30340EAD4
:10098000090258BF20EA0902CEF80420DEF8000070
:10099000E30340EA090258BF20EA0902CEF800202A
:1009A00022E700BF06B000F000B830BCBDE8C08F41
:1009B0001823002A08BF2823C150704740F29C101A
:1009C000C2F200000068704740F2000040F29C1143
:1009D000C2F20000C2F2000100780A681044086008
:1009E0007047000080B542F20000C4F202000168C6
:1009F00041F480710160032000F078F8002000F0DD
:100A000009F800281CBF012080BD00F029F8002053
:100A100080BD000070B540F20006C2F200063178D9
:100A2000E1B1044640F20800C2F200004FF47A72CD
:100A30000068B2FBF1F1B0FBF1F001F02DF80F2CE2
:100A40004FF0010508D838B94FF0FF302146002299
:100A5000002500F01FF87460284670BD012070BDAD
:100A600082B041F25800C4F20200816841F00101F5
:100A70008160816801F0010101910199016841F0F3
:100A800080510160006800F080500090009802B032
:100A90007047000010B54EF60C5CCEF2000CDCF88E
:100AA0000030C3F3022E8EF00704042C28BF042468
:100AB000BEF103034FF0FF3E0EFA04F438BF0023EB
:100AC000A14399400EFA03F39A43114300F00F0239
:100AD000043A624409010C3200F16043B0F1FF3F77
:100AE000C8BF03F56442117010BD00004EF60C51F2
:100AF000CEF200010A684FF6FF031A4060F30A22A3
:100B000042F0806040F0FD700860704747F20001DD
:100B1000C4F200010A68B0F5007F02F4C06031D170
:100B2000B0F5007F2CD00868012262F34A200860EB
:100B300040F20800C2F200000068322250434DF635
:100B40008362C4F21B32A0FB0202900C4A69520578
:100B500011D5421C0FD04A6952050CD558B14A69CB
:100B6000520508D5012806D04A69520503D5022846
:100B7000A0F10400EAD14869400544BF0320704752
:100B800000207047B0F5806FFAD00868022262F347
:100B90004A2008600020704747F20000C4F20000BD
:100BA000006800F4C06070472DE9F04782B0044649
:100BB000407841F288070007C4F2020730D5606E22
:100BC0004FEAB05103290BD8DFE801F002101C25D1
:100BD000201D002101F0E6F8064670B91AE000BFBA
:100BE00001266078C0060BD51EE000BF04F120008E
:100BF000002101F08FF9064660B16078C00613D479
:100C0000B2464EE057F87C1C41F4803147F87C1C1A
:100C100001E000BF606E396821F44001084338608C
:100C200000266078C006EBD5A06E4FEA306003283E
:100C30000AD8B246DFE800F002102216201D00217B
:100C400001F0B0F80DE000BF4FF0010A4FF00108CD
:100C5000A07880070DD528E004F12000002101F0E4
:100C600059F98246BAF1000FD04612D0A078800719
:100C70001BD4C2462168C80768D088E057F87C0CAE
:100C8000B24640F4803047F87C0CBAF1000FD046F1
:100C9000ECD13868A16E20F0407008434FF0000A94
:100CA0003860B046A0788007E3D557F8300C10F0D4
:100CB00080590BD157F8300C40F0805047F8300C79
:100CC00057F8300C00F080500190019847F2000571
:100CD000C4F20005286840F480702860FFF76EFEBB
:100CE000064600BF2868C00508D4FFF767FE801BD2
:100CF0000228F7D94FF0030A22E000BFBAF1000F33
:100D00001ED1B86810F4407012D0D4F88410884214
:100D10000BD0B868B96820F4407041F48031B960F4
:100D2000B96821F48031B960B860C00740F01C8117
:100D3000B868D4F8841020F440700843C246B86004
:100D4000B9F1000F1AD02168C80720D1880726D42E
:100D500048072CD4080732D4C80638D488063ED4B5
:100D6000880544D448054AD4480650D4080656D4C9
:100D7000C8055CD4880462D473E000BF57F8300C17
:100D800020F0805047F8300C2168C807DED0386862
:100D9000A26B20F00300104338608807D8D538686C
:100DA000E26B20F00C00104338604807D2D5386859
:100DB000226C20F03000104338600807CCD538682A
:100DC000626C20F0C00010433860C806C6D5386891
:100DD000A26C20F44070104338608806C0D5386893
:100DE000E26C20F44060104338608805BAD538685A
:100DF000E26D20F44020104338604805B4D53868CF
:100E0000226E20F44010104338604806AED5386892
:100E1000226D20F44050104338600806A8D5386889
:100E2000626D20F4404010433860C805A2D5386890
:100E3000A26D20F4403010433860880411D53A6820
:100E4000E06E22F040620243B0F1806F3A601DD044
:100E5000B0F1006F05D157F87C0C40F4801047F8D2
:100E60007C0C080326D53A68206F22F040620243CA
:100E7000B0F1806F3A6015D0B0F1006F1AD157F819
:100E80007C0C40F4801047F87C0C13E0201D0121FD
:100E900000F088FF2168002818BF82460803E2D4CA
:100EA00008E000BF201D012100F07CFF2168002820
:100EB00018BF8246480311D53A68606F22F040623D
:100EC0000243B0F1806F3A601CD0B0F1006F05D1E1
:100ED00057F87C0C40F4801047F87C0C480425D56A
:100EE0003968A06F21F040510143B0F1005F3960D3
:100EF00014D0B0F1805F19D1201D022100F052FF03
:100F000011E000BF201D012100F04CFF21680028E6
:100F100018BF82464804E3D408E000BF04F1200073
:100F2000022100F0F7FF002818BF82462068010464
:100F300006D4C0030CD4504602B0BDE8F08700BF11
:100F40003968E26F21F0804111433960C003F2D566
:100F50003868D4F8801020F00040084338605046CC
:100F600002B0BDE8F08700BFFFF728FD064641F25A
:100F700088354FF0030A00BFB86880073FF5D8AE48
:100F8000FFF71CFD801BA842F6D9D9E62DE9F043F6
:100F900081B000286BD042F20008C4F20208044677
:100FA000D8F800000D4600F0070088420CD2D8F8AF
:100FB000000020F007002843C8F80000D8F800001F
:100FC00000F00700A84252D1206841F2080910F051
:100FD0000201C4F202090DD0A268D9F8003003F072
:100FE000F0039A4206D9D9F8003023F0F0031A43EF
:100FF000C9F80020C2072DD169B1A168D9F8002035
:1010000002F0F002914206D2D9F8002022F0F0025C
:101010001143C9F80010D8F8001001F00701A942E7
:101020000CD9D8F8001021F007012943C8F80010A6
:10103000D8F8001001F00701A94218D141071BD4CC
:10104000000723D4D9F80000D9F8041010F00C00E0
:101050002CD131E0606800285ED0022800F07E804C
:10106000032840F0818059F8081C890158D40120D8
:1010700001B0BDE8F08300BFD9F80010E26821F4A8
:10108000E0611143C9F800100007DBD5D9F8000072
:10109000216920F4605040EAC100C9F80000D9F885
:1010A0000000D9F8041010F00C0005D00C2829D14C
:1010B00001F00301012925D159F8081C090703D4BF
:1010C000D9F88C10090A02E059F8081C090942F203
:1010D000D47201F00F01C0F6000252F8211000286E
:1010E0000A4618BF00220C2871D1D9F8040000F07C
:1010F0000300022846D0032804BF41F20021C0F2B9
:101100007A0143E0042857D008285BD141F200223D
:10111000C0F27A025BE000BF59F8081C8907A6D527
:10112000D9F8001021F003010843C9F80000FFF7C7
:1011300045FC064641F28837D9F80000616800F0A6
:101140000C00B0EB810F15D0FFF738FC801BB842C4
:10115000F2D9032001B0BDE8F08300BF59F8081CA4
:1011600089037FF584AFDBE759F8081C49057FF553
:101170007EAFD5E7206800F0020100297FF43DAF83
:1011800049E700BF42F20041C0F2F401D9F804007F
:10119000D9F80420C0F30210C2F306225143D9F853
:1011A00004200130B1FBF0F0C2F34161022202EBF6
:1011B0004101B0FBF1F20AE042F20042C0F2F40257
:1011C00005E000BF002200210C283FF48EAFD9F8C3
:1011D000000042F2BC71C0F30310C0F60001085CCD
:1011E00000F01F0022FA00F140F20400C2F20000F9
:1011F00040F208020068C2F20002116001B0BDE8CE
:10120000F043FFF707BC000040F2080041F208017C
:10121000C2F20000C4F202010068096842F2CC7216
:10122000C1F30221C0F60002515C01F01F01C84069
:101230007047000040F2080041F20801C2F20000CD
:10124000C4F202010068096842F2CC72C1F3C22103
:10125000C0F60002515C01F01F01C8407047000059
:1012600041F20C01C4F2020151F8040C10F00C021E
:10127000086805D00C2A29D100F00300012825D1E7
:1012800051F80C0C000703D4D1F88800000A02E0E2
:1012900051F80C0C000942F2D47300F00F00C0F6B4
:1012A000000353F82030002A184618BF00200C2AEB
:1012B00018BF7047086800F00300022810D0032808
:1012C00004BF41F20023C0F27A030DE0042A1FD0CC
:1012D000082A23D141F20020C0F27A00704700BFF3
:1012E00042F20043C0F2F40308680A68C0F3021037
:1012F000C2F30622096801305A43B2FBF0F0C1F391
:101300004161022202EB4101B0FBF1F0704700BFE6
:1013100042F20040C0F2F400704700BF00200023FA
:10132000C5E700002DE9F04383B0002800F00683F4
:1013300041F200060446C4F20206B068F168227861
:1013400000F00C09D00601F003081DD42078C00776
:1013500000F08180B9F1080F76D0B9F10C0F08BF09
:10136000B8F1030F70D06068B0F5803F07D0B0F5DA
:10137000A02F40F01982306840F48020306030683F
:1013800040F4803030601AE2B9F1000F1ED0B9F19C
:101390000C0F08BFB8F1010F18D0A16930680029FF
:1013A00000F0AE8140F001003060FFF707FB05461A
:1013B0003068800700F1B681FFF700FB401B022870
:1013C0004FF00300F4D903B0BDE8F0833068800724
:1013D00003D5A069002800F0B182256A30680007B3
:1013E00000F11E81D6F89400000900F0F00085425B
:1013F00000F21C813068B9F1000F40F00800306045
:10140000306820F0F00040EA050030607068E16963
:1014100020F47F4040EA0120706040F07D82B06D92
:10142000C00000F11982B06D40F08050B065B06D21
:1014300000F0805002900298FFF7AEFBB16D21F0F2
:101440008051B1650AE200BF3068800303D560684F
:10145000002800F07382207880072DD5B9F1040FA1
:101460001CD0B9F10C0F08BFB8F1020F16D0E1681B
:101470003068002900F0B28140F480703060FFF7DE
:101480009DFA0546306840050FD4FFF797FA401BD8
:1014900002284FF00300F5D995E700BF30684005FA
:1014A00003D5E068002800F049827068216920F0C7
:1014B000F85040EA01607060207800075ED4207820
:1014C000400771D4A06A002800F0E282022840F0B0
:1014D000DF80F068E16A00F003028A4240F0F080A9
:1014E000226B6FF00F0300F0700103EB02129142C8
:1014F00040F0E680616B00F4FE42B2EB012F40F059
:10150000DF80A16B00F40032073918BF01218A4245
:1015100040F0D680E26B0023CFF6E07303EB02527B
:1015200000F4C0016FF31402914240F0C980216CB5
:101530004FF07E4202EB016100F0C06001F07E419D
:10154000884240F0BD803068800100F1A18230689F
:1015500040F080703060F06840F08070F060FFF71D
:101560002DFA04463068800100F19282FFF726FAD6
:10157000001B02284FF00300F4D924E76169D6F874
:10158000940000296ED040F00100C6F89400FFF7E7
:1015900015FA0546D6F89400800790D4FFF70EFAA6
:1015A000401B0228F6D9FBE0B06D10F0805808D13E
:1015B000B06D40F08050B065B06D00F0805000908C
:1015C000009847F20007C4F200073868C00513D43A
:1015D000386840F480703860FFF7F0F9054600BFC6
:1015E0003868C00508D4FFF7E9F9401B02284FF01E
:1015F0000300F5D9E7E600BFA068012808D0052858
:1016000040F0B080D6F8900040F00400C6F890009A
:10161000D6F8900040F00100C6F89000B1E000BF9D
:10162000306800F0F00085427FF6E4AEB06DC00097
:1016300000F18A80B06D40F08050B065B06D00F070
:10164000805001900198FFF7A7FAB16D21F0805109
:10165000B165B0F5007F00F07D80802D40F2D08034
:101660000320D8E020F00100C6F89400FFF7A6F9A7
:10167000054600BFD6F8940080077FF520AFFFF73E
:101680009DF9401B02284FF00300F3D99BE600BFF1
:10169000B9F10C0F00F05281306820F0807030609A
:1016A000FFF78CF9044600BF3068800140F1E48008
:1016B000FFF784F9001B02284FF00300F4D982E6FB
:1016C000B9F10C0F00F03A81306840015CBF30681E
:1016D0005FEAC00000F13281306820F08070306035
:1016E000FFF76CF905463068800140F18F81FFF704
:1016F00065F9401B02284FF00300F4D963E600BFF0
:1017000020F001003060FFF759F905463068800786
:101710007FF51CAEFFF752F9401B02284FF0030083
:10172000F4D950E6306840F0080030603068D4E901
:10173000072120F0F00008433060706820F47F40FB
:1017400040EA0220706001E6FFF726FAB0F5007F5C
:101750007FF483AF812D5DD30120A02D88BF0220AF
:1017600059E000BFD6F89010002821F00101C6F81A
:101770009010D6F8901021F00401C6F8901000F0F7
:101780008780FFF71BF9054641F28837D6F89000AD
:10179000800700F18F80FFF711F9401BB842F5D99F
:1017A000032003B0BDE8F0833168002821F48031C4
:1017B0003160316821F48021316000F08580FFF7CD
:1017C000FDF80546306880033FF545AEFFF7F6F8B3
:1017D000401B64284FF00300F4D9F4E520F4807036
:1017E0003060FFF7EBF80546306840057FF564AEE2
:1017F000FFF7E4F8401B02284FF00300F4D9E2E5BC
:10180000A5F17000B0FA80F04009802D08BF0220D9
:1018100001E000BF002042F20001C4F202010A68A8
:1018200022F0070202440A60096801F007018142C0
:1018300040F08480306840F0080030603068D4E9BF
:10184000072120F0F00008433060706820F47F40EA
:1018500040EA022070605FE0FFF79EF9B0F5007F7C
:1018600006D1812D40D30120A02D88BF022045E064
:10187000802D3BD9032041E0F0684FF6FC71CFF694
:10188000EE610840F060002003B0BDE8F08300BFC7
:10189000FFF794F8054641F28837D6F890008007A4
:1018A00008D5FFF78BF8401BB8424FF00300F4D97E
:1018B00089E500BFB8F1000F7FF404AEB06D20F0F1
:1018C0008050B065FEE500BFFFF778F80546306848
:1018D00080037FF5C0ADFFF771F8401B64284FF01F
:1018E0000300F4D96FE500BF002007E0A5F1700008
:1018F000B0FA80F04009802D08BF022042F20001BA
:10190000C4F202010A6822F0070202440A60096870
:1019100001F00701814211D1B068F16810F00C00AC
:1019200005D00C282AD101F00301012926D1316804
:10193000090707D4D6F89410090A05E0012003B07E
:10194000BDE8F0833168090942F2D47201F00F0159
:10195000C0F6000252F8211000280A4618BF0022E3
:101960000C2837D1F06800F00300022810D00328BB
:1019700004BF41F20021C0F27A010DE004281FD01B
:10198000082823D141F20022C0F27A0222E000BFEF
:1019900042F20041C0F2F401F068F268C0F30210B4
:1019A000C2F306225143F2680130B1FBF0F0C2F3FA
:1019B0004161022202EB4101B0FBF1F20AE000BFFB
:1019C00042F20042C0F2F40204E000BF0022002113
:1019D0000C28C7D0B06842F2BC71C0F30310C0F647
:1019E0000001085C00F01F0022FA00F140F2040040
:1019F000C2F2000040F208020068C2F20002116068
:101A0000FFF708F800287FF4DEAC9FE4F06848F2A6
:101A10008C01CFF69D1104F12C0700EA010C8ECF4A
:101A2000D4E90F546FF00F0040F2000E00EB0210EB
:101A3000CFF6E07E41EA0C010EEB05554FF07E42F9
:101A400008436FF3140502EB046240EA032002F03E
:101A50007E420EF5F014284304EA4737104338431A
:101A6000F060306840F080703060F06840F0807066
:101A7000F060FEF7A3FF04463068800108D4FEF74B
:101A80009DFF001B02284FF00300F5D99BE400BF27
:101A9000002003B0BDE8F083411E0020B0EB116FC1
:101AA0001CBF012070474EF21002CEF200025160BE
:101AB0004EF62351CEF20001F0230B700721906007
:101AC00011607047B0B582B0A0B10446806F28B9EC
:101AD000002084F87400204600F056F82420A06707
:101AE0002068016821F001010160204600F038FB08
:101AF000012803D1012002B0B0BD00BF606A10B15F
:101B0000204600F0B9FA2068416821F49041416014
:101B1000816821F02A018160016841F001010160C2
:101B20000020C4F88000FEF749FF216805460A68D6
:101B300012070CD56FF07E4C20464FF400110022A6
:101B40002B46CDF800C000F03FFC78B9216808684A
:101B500040070FD56FF07E4C20464FF480010022E5
:101B60002B46CDF800C000F02FFC18B1032002B0C6
:101B7000B0BD00BF2020A067E0670020206684F889
:101B8000740002B0B0BD000010B5A8B0044600203B
:101B90002790CDE92500CDE9230001A88821FEF793
:101BA0007EFC206844F60001C4F20001884229D07E
:101BB00044F20041C4F20001884254D10220019055
:101BC00001A8FEF7F1FF002818BFFEF747FD41F21C
:101BD0004C00C4F20200C16841F40031C160C16828
:101BE00001F4003100910099016841F001010160A8
:101BF000006800F00100009000980C2023904FF046
:101C0000904025E00420019001A8FEF7CDFF0028B8
:101C100018BFFEF723FD41F24C00C4F20200C16878
:101C200041F48021C160C16801F4802100910099D4
:101C3000016841F004010160006800F004000090B8
:101C400000984FF44060239040F60000C4F6000076
:101C5000022124910021259103212691072127911A
:101C600023A9FEF79DFD28B010BD00002DE9F0432B
:101C700081B00446806F20280BD10E4600294FF01A
:101C800001005CD01746002A59D094F8740001284E
:101C900004D1022001B0BDE8F08300BF012084F828
:101CA00074004FF0000921201D46C4F88090A06701
:101CB000FEF784FEA4F85070A4F85270A16807469D
:101CC000B1F5805F08D1206900281CBF30464E4620
:101CD000B046064602E000BF4FF0000884F874905A
:101CE00009E000BF16F8010B21680885B4F852001E
:101CF0000138A4F85200B4F8520088B1204680217F
:101D000000223B46009500F05FFB88B9002EE9D128
:101D100038F8020B21686FF35F2008850026E5E79D
:101D20002046402100223B46009500F04DFB18B1B3
:101D3000032001B0BDE8F0832020A067002001B09F
:101D4000BDE8F083FEE70000FEE70000FEE70000CC
:101D500083B010B59BB01DA802AC0EC01DAA0BA18C
:101D600020460192FEF7FCFA2046FEF779FB82B28C
:101D700040F29400C2F2000021464FF0FF33FFF71B
:101D800075FF1BB0BDE8104003B070474375727219
:101D9000656E74205469636B203A2025640D0A0037
:101DA00070470000F0B581B041F20007C4F20207AD
:101DB000FA680D469107044614D0F868216800F0CF
:101DC000030088424FF0010040F0A180002900F09C
:101DD0009E80F8686168C0F302100130884232D1F9
:101DE00034E000BF206803280CD0022816D0012858
:101DF00029D13968012211F0020182EA510116D17C
:101E000020E000BF3968890310D43968012211F439
:101E1000802182EA91410AD114E000BF3968012291
:101E200011F4806182EA912101D10BE00021FA686E
:101E3000636822F073026FF00F0606EB0313104382
:101E40001843F86011B1012001B0F0BD386820F0EE
:101E500080603860FEF7B2FD064600BF38680001BA
:101E600006D5FEF7ABFD801B0228F7D946E000BF80
:101E7000012D0FD005BB386948F2FF01CFF6FD7187
:101E80000840D4E902120023CFF6FE7303EA42327F
:101E900020E000BF48F2FF013869CFF6FF11226948
:101EA000002301F1B461CFF6E0730840A16803EBB1
:101EB00002526FF314020DE0386948F2FF016269C3
:101EC000CFF6FF114FF07E430840A16803EB02629A
:101ED00002F07E4240EA012010433861386840F049
:101EE00080603860FEF76AFD054600BF3868000173
:101EF00008D4FEF763FD401B0228F7D9032001B088
:101F0000F0BD00BFA069396908433861002001B005
:101F1000F0BD0000F0B581B041F20007C4F2020745
:101F2000FA680D469107044614D0F868216800F05D
:101F3000030088424FF0010040F08D80002900F03E
:101F40008A80F8686168C0F302100130884219D1B4
:101F500036E000BF2068032818D002280AD00128E4
:101F600010D13968012211F0020182EA510108D032
:101F700019E000BF3968012211F4806182EA9121E1
:101F800011D1E9B1012001B0F0BD00BF396889036A
:101F900008D43968012211F4802182EA9141F0D0FD
:101FA00001E000BF0021FA68636822F073026FF05D
:101FB0000F0606EB031310431843F8600029E1D124
:101FC000386820F080503860FEF7F8FC064600BF05
:101FD0003868800006D5FEF7F1FC801B0228F7D98F
:101FE00030E000BF78696DB148F2FF012269CFF699
:101FF000FF114FF07E430840A16803EB026202F03C
:102000007E420BE048F2FF01CFF6FD710840D4E9B3
:1020100002120023CFF6FE7303EA423240EA0120A7
:1020200010437861386840F080503860FEF7C6FC95
:10203000054600BF3868800008D4FEF7BFFC401B8F
:102040000228F7D9032001B0F0BD00BF60697969AB
:1020500008437861002001B0F0BD00007047000027
:10206000FEF7B2BC4EF68850CEF20000016841F493
:10207000700101607047000080B5416ACA070DD148
:102080008A0716D44A071FD40A0728D4CA0631D4AF
:102090008A063AD44A0658D542E000BF0268D0F812
:1020A00028C0536823F4003343EA0C0353608A07C3
:1020B000E8D50268D0F82CC0536823F4803343EA93
:1020C0000C0353604A07DFD50268D0F830C053686C
:1020D00023F4802343EA0C0353600A07D6D5026831
:1020E000D0F834C0536823F4004343EA0C03536030
:1020F000CA06CDD50268D0F838C0936823F480535F
:1021000043EA0C0393608A06C4D50268D0F83CC049
:10211000936823F4005343EA0C0393604A0614D5F2
:102120000268D0F840C05368BCF5801F23F48013C8
:1021300043EA0C03536008D1D2F804C0D0F844E05D
:102140002CF4C00343EA0E035360090658BF80BD58
:102150000168806C4A6822F400221043486080BD08
:10216000B0B505462A69D5E9021300680A436969D2
:10217000D5F81CE01143026846F6F314CEF6FF745E
:1021800041EA0E01224011430160416848F2000C0F
:1021900021F4405119434160AA69C4F2000C604522
:1021A0001CBF296A0A438168102321F4306111435E
:1021B000816044F6FF71C4F20001884218DC44F2E9
:1021C0000041C4F20001884228D044F60001C4F264
:1021D000000188422AD044F60041C4F2000188423E
:1021E00042D141F28801C4F2020109688B0933E04F
:1021F00045F20001C4F2000188421FD0604525D09D
:1022000043F60001C4F2010188422DD141F2880158
:10221000C4F202010B6868A222E000BF41F288010B
:10222000C4F2020109688B0816E000BF41F2880180
:10223000C4F2020109680B090EE000BF41F28801F7
:10224000C4F2020109680B0A06E000BF41F28801EE
:10225000C4F2020109688B0A42F60402C0F60002C9
:1022600003F0030152F82130604542F20040C0F211
:10227000F40015D0BEF5004F22D1082B4FF001011C
:1022800000F29580DFE803F006546093589393932F
:102290005E0000BFFEF7B8FF002855D14FE000BF39
:1022A000082B4FF0010100F28280DFE803F0058087
:1022B00023801B8080802100FEF7A6FFD0B914E0A8
:1022C000082B4FF0010100F27280DFE803F00553A4
:1022D0005F70577070705D00FEF796FF002855D153
:1022E0004FE000BFFEF7BCFF20B900215FE000BF58
:1022F0004FF400406A6802EB420188424FF001014E
:1023000055D31303984252D8010E000210EB52002D
:1023100041F100010023FDF7ABFF4FF60052A0F59D
:102320004071C0F20F0291423BD301213FE000BF58
:10233000FEF780FF40B902E0FEF792FF20B90021CE
:1023400035E000BF4FF4004069684A0802EB4000E6
:10235000B0FBF1F04FF6EF72A0F11001914207D8F7
:102360004FF6F0710140C0F34200084419E000BF8D
:1023700001211CE0FEF75EFF40B902E0FEF770FFAE
:1023800020B9002113E000BF4FF4004069684FF608
:10239000EF7200EB5100B0FBF1F0A0F1100191429F
:1023A00004D82968C860002101E000BF0121002293
:1023B00008466A66AA66B0BD01000000040000007D
:1023C00002000000080000002DE9F041044600680A
:1023D0001546C2690E461140891BB1FA81F14909BF
:1023E000A94240F0A080DDF81880B8F1000F29D094
:1023F00018F1010140F08080C1693140891BB1FAB8
:1024000081F14909A94240F08E80C1693140891BA0
:10241000B1FA81F14909A94240F08580C169314092
:10242000891BB1FA81F14909A9427CD1C1693140C6
:10243000891BB1FA81F14909A942DDD00020BDE82C
:10244000F08100BFFEF7BAFA206850E8000F21685B
:1024500020F4D07041E80002BAB3206850E8000FC1
:10246000216820F4D07041E8000272B3206850E87F
:10247000000F216820F4D07041E800022AB32068E0
:1024800050E8000F216820F4D07041E80002002AD3
:10249000DAD11AE0206850E8020F216820F001002C
:1024A00041E80202DAB1206850E8020F216820F00A
:1024B000010041E8020292B1206850E8020F216851
:1024C00020F0010041E802024AB1206850E8020F02
:1024D000216820F0010041E80202002ADAD1202020
:1024E000A06704F17C0020210160002084F87400C2
:1024F0000320BDE8F08100BF1F4600BFFEF75EFA73
:10250000C01B4045A0D820680168490744BFC16985
:102510005FEA01510AD4C0693040801BB0FA80F0F4
:102520004009A842EAD00020BDE8F0814FF40061E4
:10253000016200BF50E8000F216820F4D07041E82C
:102540000002C2B3206850E8000F216820F4D07068
:1025500041E800027AB3206850E8000F216820F4B7
:10256000D07041E8000232B3206850E8000F2168C3
:1025700020F4D07041E80002EAB12068DAE700BF39
:10258000206850E8020F216820F0010041E80202B3
:10259000DAB1206850E8020F216820F0010041E81C
:1025A000020292B1206850E8020F216820F0010079
:1025B00041E802024AB1206850E8020F216820F089
:1025C000010041E80202002ADAD12020A067E0677A
:1025D00004F1800087E70000FEE7000096B0FEF7F8
:1025E00001FA05A804302421FDF759FF4FF40070CB
:1025F000FEF78CFA20B1EFF3108072B6FEE700BF51
:102600004FF48071089110210991012111910A2143
:102610000220129107210590CDE90F00CDE913109A
:10262000159005A8FEF77EFE20B1EFF3108072B67C
:10263000FEE700BF0F2000900320019000256846B0
:102640000421CDE902550495FEF7A0FC20B1EFF37B
:10265000108072B6FEE700BF41F24C00CDE908558C
:10266000C4F20200016844F2004641F00401016036
:102670000168002201F00401009100990168C4F290
:10268000000641F0800101600168202701F080010F
:1026900000910099016841F001010160016801F0B9
:1026A000010100910099016841F002010160006898
:1026B000202100F00200009000984FF09040FEF7BB
:1026C00077F94FF4005005904FF40410CDE906055A
:1026D00040F6000005ACC4F600002146FEF760F8A5
:1026E000059701274FF090402146CDE906750895E2
:1026F000FEF756F840F29400C2F200004FF4E131C8
:102700000C22C0E90061C0E90255C0E90452C0E9E9
:102710000655C0E90855FFF7D5F928B1EFF3108049
:1027200072B600BFFEE700BF40F2700043F2000146
:10273000C2F20000C4F20201002401608480C0E9FA
:1027400005440762FDF7D6FF20B1EFF3108072B6A3
:10275000FEE700BF40F2181006F58061C2F20000EB
:102760000C234FF4E13280E81600C0E90344C0E9CD
:102770000534C0E907444462FFF7A4F920B1EFF340
:10278000108072B6FEE700BFFEF718F90146044656
:10279000FFF7DEFA04F5FA74FEF710F9A042FBD950
:1027A000F2E7F1EE100A4FF6FF71C0F2C03120EAF5
:1027B000010040F04070E1EE100A70470000000098
:1027C00000000000010203040607080900000000E1
:1027D00001020304A0860100400D0300801A0600D8
:1027E00000350C0040420F0080841E0000093D00AF
:1027F00000127A000024F40000366E010048E8015F
:10280000006CDC0200000000040000000200000078
:102810000800000038280008000000201000000018
:10282000C40100084828000810000020900700009C
:10283000E00100080000000001000000100000009E
:0828400000093D00000000004A
:040000050800018965
:00000001FF
